:020000040800F2
:1000000020DD00249903000811570008115300084F
:1000100009570008A9050008399E000800000000E3
:10002000000000000000000000000000915F0008D8
:100030009106000800000000315B0008196000080C
:10004000B7030008B7030008B7030008B7030008A8
:10005000B7030008B7030008B7030008B703000898
:10006000B7030008B7030008B7030008B703000888
:10007000B7030008B7030008B7030008B703000878
:10008000B7030008B7030008B7030008B703000868
:10009000B7030008B7030008B7030008B703000858
:1000A000B7030008B7030008B7030008B703000848
:1000B000B7030008B7030008B7030008B703000838
:1000C000B7030008B7030008B7030008B703000828
:1000D000B7030008B7030008B7030008B703000818
:1000E000B7030008B703000800000000B7030008CA
:1000F000B7030008B7030008B7030008B7030008F8
:10010000B7030008B7030008B7030008B7030008E7
:10011000B7030008B7030008B7030008B7030008D7
:10012000B7030008B7030008B7030008B7030008C7
:10013000B7030008B7030008B7030008B7030008B7
:1001400000000000000000000000000000000000AF
:10015000B7030008B7030008B7030008B703000897
:10016000B7030008B7030008B7030008B703000887
:10017000B703000889570008B70300080000000013
:10018000B7030008B7030008B7030008B703000867
:10019000B7030008B7030008B7030008B703000857
:1001A000B7030008B7030008B70300080000000009
:1001B000B7030008B7030008B7030008B703000837
:1001C000B7030008B70300080000000000000000AB
:1001D0000000000000000000B7030008000000005D
:1001E000000000000000000000000000000000000F
:1001F0000000000000000000B7030008B70300087B
:10020000B7030008B703000800000000B7030008A8
:10021000B7030008B7030008B7030008B7030008D6
:10022000B703000800000000B7030008000000004A
:10023000B7030008B703000800000000B703000878
:10024000B7030008B7030008B7030008B7030008A6
:10025000B7030008B7030008B7030008B703000896
:10026000B7030008B7030008B7030008B703000886
:10027000B7030008B7030008B70300080000000038
:10028000B7030008B7030008B7030008B703000866
:1002900000000000B7030008B703000800000000DA
:1002A00000000000B7030008B7030008B703000808
:1002B000B7030008B7030008B7030008B703000836
:1002C000B703000879620008B703000800F002F8DD
:1002D00000F052F814A696E8000CB244B344DA4594
:1002E00001D100F049F8BAE80F000FA696E83000F7
:1002F000A5EB040504EB0607AAEB0704A7F1010729
:100300004FEA15154FEA3414A4F10104AC4201D3AD
:1003100000F032F813F0010F18BFFB1A43F001038D
:1003200000F001F8DBE718478CCA0000ACCA0000F7
:10033000103A24BF78C878C1FAD8520724BF30C811
:1003400030C144BF04680C60704700007047000073
:100350000023002400250026103A28BF78C1FBD8CE
:10036000520728BF30C148BF0B6070471FB50CF063
:10037000A3FC1FBD10B510BD00F0DBF81146FFF760
:10038000F5FF09F0E5FD00F0F9F803B4FFF7F2FF1F
:1003900003BC00F001F900000A4880470A48804782
:1003A0000A480047FEE7FEE7FEE7FEE7FEE7FEE756
:1003B000FEE7FEE7FEE7FEE705480649064A074B6B
:1003C00070470000A906000811610008CD0200086E
:1003D00020AD002420DD002420CD002420CD0024E9
:1003E000032A40F2308010F0030C00F0158011F861
:1003F000013BBCF1020F624498BF11F801CB00F839
:10040000013B38BF11F8013BA2F1040298BF00F88C
:1004100001CB38BF00F8013B11F0030300F0258049
:10042000083AC0F0088051F8043B083A51F804CB70
:10043000A0E80810F5E7121D5CBF51F8043B40F836
:10044000043BAFF30080D20724BF11F8013B11F841
:1004500001CB48BF11F8012B24BF00F8013B00F885
:1004600001CB48BF00F8012B704710B5203AC0F00F
:100470000B80B1E81850A0E81850B1E81850A0E877
:100480001850203ABFF4F5AF5FEA027C24BFB1E810
:100490001850A0E8185044BF18C918C0BDE8104053
:1004A0005FEA827C24BF51F8043B40F8043B08BF5C
:1004B0007047D20728BF31F8023B48BF11F8012B23
:1004C00028BF20F8023B48BF00F8012B704702F01C
:1004D000FF0343EA032242EA024200F002B84FF06F
:1004E000000200B5134694469646203922BFA0E884
:1004F0000C50A0E80C50B1F12001BFF4F7AF090790
:1005000028BFA0E80C5048BF0CC05DF804EB890080
:1005100028BF40F8042B08BF704748BF20F8022BC3
:1005200011F0804F18BF00F8012B704770477047DB
:100530007047754600F02CF8AE46050069465346F4
:1005400020F00700854618B020B5FFF735FFBDE85D
:1005500020404FF000064FF000074FF000084FF02A
:10056000000BAC46ACE8C009ACE8C009ACE8C00977
:10057000ACE8C00921F007018D46704710B504466C
:10058000AFF300802046BDE81040FFF7FEBE00003C
:10059000004870470801002401491820ABBEFEE75F
:1005A0002600020070470000FFE7FEE700000000A1
:1005B00084B08DF80F000291ADF806209DF80F0071
:1005C0000146009123281DD80099DFE801F012139D
:1005D0001415161B1B1B1B1B1B1B1B1B1B1B1B1B7D
:1005E0001B1B1B1B1B1B1B1B1B1B1B1B1B1B171862
:1005F000191A08E007E006E005E004E003E002E085
:1006000001E000E0FFE7002004B0704700000000B8
:10061000002070470000000080B582B041F2985081
:10062000C2F20040009040F69451C2F20041002214
:10063000019206F0B5FA009840F29451C2F20041DE
:1006400006F08EFA019802B080BD000000000000A4
:1006500080B584B003900291039941F29850C2F2A0
:100660000040019006F07CFA019806F01DFA002087
:1006700004B080BD0000000083B0029001918DF8AD
:10068000032000208DF802009DF9020003B070479E
:10069000704700000000000081B0EFF3108072B6D8
:1006A0000090FFE7FEE7000044F60C01C5F60201EA
:1006B000086840F002000860FFE744F60400C5F651
:1006C000020000688004002801D4FFE7F5E77047C6
:1006D00084B002900298406B009002980068D0F8B5
:1006E00084004FF6FC718843009940EA810002992A
:1006F0000968C1F8840002980068D0F8840020F4EA
:100700007F00029A1168926B40EA0240C1F88400AF
:100710000298816B00980844009002980068D0F815
:1007200088006FF38F00009940EA81000299096800
:10073000C1F8880002980068D0F8880020F4FE0014
:10074000029A1168D26B40EA0240C1F88800029810
:10075000C16B009800EB4100009002980068D0F84F
:10076000A0006FF38F00009940EA810002990968A8
:10077000C1F8A00002980068D0F8A00020F4FE00A4
:10078000029A1168126C40EA0240C1F8A000029976
:10079000086C496C009A00FB0120009002980068E8
:1007A000D0F8B0006FF38F00009940EA8100029901
:1007B0000968C1F8B00002980068D0F8B00020F4D1
:1007C000FE00029A1168926C40EA0240C1F8B00043
:1007D0000299886CC96C009A00FB01200090029875
:1007E0000068D0F8AC006FF38F00009940EA8100F8
:1007F00002990968C1F8AC000299086D496D009A28
:1008000000FB0120009002980068D0F8F0006FF320
:100810008F00009940EA810002990968C1F8F00050
:1008200002980068D0F8F00020F47C10029A116859
:10083000926D40EA0240C1F8F0000298816D009884
:1008400000EB4100009002980068D0F8C0006FF300
:100850008F00009940EA810002990968C1F8C00040
:1008600002980068D0F8C00020F47C10029A116849
:10087000D26D40EA0240C1F8C00002980068D0F88A
:10088000C00020F07C50029A1168126E40EA0260AB
:10089000C1F8C00002994A6B4AF60040C4F2000059
:1008A00000EB8200C86602998A6BC86E00EB82007A
:1008B00008670299CA6B086F00EBC200486702998B
:1008C0000A6C4B6C486F5A4300EB820088670299B0
:1008D0008A6CCB6C886F5A4300EB8200C867029920
:1008E0000A6D4B6DC86F5A4300EB8200C1F880005F
:1008F00002998A6DD1F8800000EBC200C1F8840033
:100900000299CA6D8B6ED1F884005A4300EB8200C5
:10091000C1F8880002990A6E8B6ED1F888005A439C
:1009200000EB8200C1F890000298D0F890004DF2E0
:10093000FD31C4F2000188420FD3FFE70299D1F8DC
:100940009C0040F02000C1F89C000299032081F82F
:10095000980001208DF80F0017E00298C06E0190FA
:10096000FFE701980299D1F89010884208D2FFE77A
:10097000019900200860FFE7019804300190F0E73A
:10098000FFE700208DF80F00FFE79DF80F0004B08F
:10099000704700000000000080B584B04EF60000F3
:1009A000C1F6F170006803904EF60400C1F6F170D4
:1009B000006802904EF60800C1F6F17000680190E0
:1009C0000199039808440390039888B1FFE70398BE
:1009D00040F2E001C2F2004100910231082204F02D
:1009E0009BFC009902981231042204F095FCFFE769
:1009F00004B080BD0000000080B584B0039000F01A
:100A0000EBFC0290039801900198013048B1FFE798
:100A100040F2FA00C2F200400178019808440190C7
:100A2000FFE7FFE700F0D8FC0299401A01998842DD
:100A300001D2FFE7F6E704B080BD0000000000002F
:100A400080B598B016904CF6D441C0F6000101A8CC
:100A50004C22FFF70AFD169820B9FFE701208DF818
:100A60005F00D9E1169800684AF20001C4F2000163
:100A7000884206D1FFE71699086800F58070486043
:100A8000FFE716988068B0F5407F01D1FFE7FFE7E8
:100A90001698006C08B1FFE7FFE71698806C08B164
:100AA000FFE7FFE71698006D08B1FFE7FFE716982C
:100AB000006E08B1FFE7FFE71699C86D096E08449C
:100AC00008B1FFE7FFE7169890F8980040B9FFE7F4
:100AD0001699002081F89900169800F0A1F9FFE717
:100AE00016980168886920F01000886100F074FC95
:100AF0001590FFE71698006880690007002817D551
:100B0000FFE700F069FC1599401A0B280FD3FFE7A7
:100B10001699D1F89C0040F00100C1F89C0016998C
:100B2000032081F8980001208DF85F0074E1E1E76F
:100B300016980168886940F00100886100F04CFC5B
:100B40001590FFE7169800688069C007B8B9FFE7FD
:100B500000F042FC1599401A0B280FD3FFE71699B5
:100B6000D1F89C0040F00100C1F89C0016990320C8
:100B700081F8980001208DF85F004DE1E2E71698BA
:100B80000168886940F0020088611698007C01289D
:100B900007D1FFE716980168886920F04000886156
:100BA00006E016980168886940F040008861FFE718
:100BB0001698407C012807D1FFE7169801688869DC
:100BC00040F48040886106E016980168886920F446
:100BD00080408861FFE71698807C012807D1FFE7F5
:100BE00016980168886920F48050886106E016989C
:100BF0000168886940F480508861FFE716980068B2
:100C0000806920F44070169A1168926810438861D8
:100C100016980168886920F0A40088611698016818
:100C2000086920F0100008611698C068012807D1F3
:100C3000FFE716980168886940F0040088612BE09E
:100C40001698C06830B3FFE71698C068022819D01C
:100C5000FFE716980168886940F08000886116985F
:100C60000168086940F0100008611698C068032800
:100C700007D1FFE716980168886940F02000886175
:100C8000FFE706E016980168886940F02000886157
:100C9000FFE700E0FFE7FFE7169A116853699069E4
:100CA000D2F81CE0A0F1010C6FF0FF0000EB0E2069
:100CB00040EA4C60126A013A10430022CFF6FF72FC
:100CC00002EB03421043C86116988068B0F5407F7C
:100CD0001CD1FFE7169A1168536A906AD2F82CE08B
:100CE00001386FF0FF0C0CEB0E2C40EA0C00D2F830
:100CF00030C06FF00F0202EB0C1210430022CFF64F
:100D0000FF7202EB03421043C860FFE71698006EC3
:100D100048B1FFE716980168426ED1F8C000104351
:100D2000C1F8C000FFE71699C86D096E084480B18C
:100D3000FFE716980068D0F8C80020F00700169A60
:100D40001168936E01AA52F823201043C1F8C8001D
:100D5000FFE71698006C80B1FFE716980068D0F89E
:100D6000BC0020F00700169A1168536C01AA52F8D3
:100D700023201043C1F8BC00FFE71698806C88B1AF
:100D8000FFE716980068D0F8BC0020F07000169AB3
:100D90001168D36C01AA52F8232040EA0210C1F86E
:100DA000BC00FFE71698006D88B1FFE71698006851
:100DB000D0F8BC0020F4E060169A1168536D01AAC7
:100DC00052F8232040EA0220C1F8BC00FFE7169841
:100DD00000684AF20001C4F20001884207D1FFE72F
:100DE00016984168886820F003008860FFE716992C
:100DF0000020C1F894001699C1F89C0016990120B2
:100E000081F898001698FFF763FC8DF853009DF861
:100E100053008DF85F00FFE79DF85F0018B080BDBC
:100E200080B58CB00B9000200A9009900890079034
:100E300006900B9800684AF20001C4F20001884253
:100E40003BD1FFE740F26810C2F200400168013177
:100E500001600068012810D1FFE7FFE744F2EC4091
:100E6000C5F60200016841F480710160006800F479
:100E7000807005900598FFE7FFE7FFE744F2E04048
:100E8000C5F60200016841F008010160006800F049
:100E9000080004900498FFE70320069002200790C2
:100EA00000200890099009200A9040F60040C5F6FD
:100EB000020006A900F090F88BE00B9800684AF257
:100EC0000041C4F2000188423CD1FFE740F26810C3
:100ED000C2F200400168013101600068012810D1B0
:100EE000FFE7FFE744F2EC40C5F60200016841F479
:100EF00080710160006800F4807003900398FFE740
:100F0000FFE7FFE744F2E040C5F60200016841F068
:100F100002010160006800F0020002900298FFE701
:100F20004FF440500690022007900020089009904E
:100F300009200A9040F20040C5F6020006A900F020
:100F40004BF845E00B9800684DF20041C4F20001F7
:100F500088423CD1FFE740F26810C2F200400168CD
:100F6000013101600068012810D1FFE7FFE744F27A
:100F7000EC40C5F60200016841F480710160006830
:100F800000F4807001900198FFE7FFE7FFE744F26B
:100F9000E040C5F60200016841F008010160006808
:100FA00000F0080000900098FFE74FF440500690D2
:100FB0000220079000200890099005200A9040F632
:100FC0000040C5F6020006A900F006F8FFE7FFE7BB
:100FD000FFE70CB080BD00008FB00E900D91002097
:100FE0000C908020C5F600000990FFE70D9800687E
:100FF0000C99C840002800F0C181FFE70D980068F7
:101000000C9A0121914008400B900B98002800F0A9
:10101000B181FFE70D98406800F00300012807D078
:10102000FFE70D98406800F0030002282FD1FFE78A
:101030000E9880680A900C984100032000FA01F194
:101040000A9888430A900D98C0680C99490000FAE4
:1010500001F10A9808430A900A980E9988600E9840
:1010600040680A900C99012000FA01F10A9888431F
:101070000A900D984068C0F300100C9900FA01F135
:101080000A9808430A900A980E994860FFE70D985D
:10109000406800F00300032818D0FFE70E98C068EE
:1010A0000A900C984100032000FA01F10A98884345
:1010B0000A900D9880680C99490000FA01F10A988D
:1010C00008430A900A980E99C860FFE70D98406897
:1010D00000F00300022826D1FFE70E980C996FF06C
:1010E000030202EA51010844006A0A900C9800F0D9
:1010F000070081000F2000FA01F10A9888430A9046
:101100000D9800690C9901F00701890000FA01F1BE
:101110000A9808430A900A980E990C9B02EA530217
:1011200011440862FFE70E9800680A900C9841008D
:10113000032000FA01F10A9888430A900D9840684C
:1011400000F003000C99490000FA01F10A980843E5
:101150000A900A980E9908600D98807980070028F7
:1011600000F00781FFE7FFE744F2F440C5F6020014
:10117000016841F002010160006800F0020008907F
:101180000898FFE70C9820F0030040F20841C5F6EC
:10119000000140580A900C9800F0030081000F20D5
:1011A00000FA01F10A9888430A900E980021C5F6CA
:1011B0000201884203D1FFE7002007906CE00E98FF
:1011C00040F20041C5F60201884203D1FFE7012049
:1011D00006905EE00E9840F60001C5F602018842D6
:1011E00003D1FFE70220059050E00E9840F6004141
:1011F000C5F60201884203D1FFE70320049042E0D4
:101200000E9841F20001C5F60201884203D1FFE7C2
:101210000420039034E00E9841F20041C5F602012B
:10122000884203D1FFE70520029026E00E9841F6A0
:101230000001C5F60201884203D1FFE706200190B4
:1012400018E00E9841F60041C5F60201884203D12C
:10125000FFE7072000900AE00E9942F20042C5F62F
:1012600002020A20914208BF09200090FFE700987F
:101270000190FFE701980290FFE702980390FFE7D3
:1012800003980490FFE704980590FFE705980690FF
:10129000FFE706980790FFE707980C9901F0030114
:1012A000890000FA01F10A9808430A900A980C99FB
:1012B00021F0030140F20842C5F6000288504FF0C9
:1012C000B04000680A900B990A9888430A900D98DC
:1012D0008079C006002805D5FFE70B990A980843D6
:1012E0000A90FFE70A984FF0B04108600420C5F665
:1012F000000000680A900B990A9888430A900D989C
:1013000080798006002805D5FFE70B990A980843E5
:101310000A90FFE70A980421C5F6000108600998C1
:1013200040680A900B990A9888430A900D98807932
:101330008007002805D5FFE70B990A9808430A9013
:10134000FFE70A9809994860099800680A900B9984
:101350000A9888430A900D988079C00728B1FFE762
:101360000B990A9808430A90FFE70A9809990860C0
:10137000FFE7FFE70C9801300C9037E60FB070479D
:1013800083B00290ADF80610029840690090009A70
:10139000BDF8060002EA0001904340EA01400299CC
:1013A000886103B07047000082B00190ADF8021070
:1013B0008DF801209DF8010028B1FFE7BDF802007B
:1013C0000199886105E0BDF8020000040199886177
:1013D000FFE702B0704700004AF24450C2F20040FA
:1013E000006870470000000040F2FA00C2F20040BE
:1013F00002784AF24451C2F2004108681044086081
:10140000704700000000000080B582B0032000F0AB
:10141000DFF802F0C5FD44F21842C5F60202116879
:10142000C1F303234CF62051C0F60001CB5C03F05E
:101430001F03D84000900098126802F00F02895CE8
:1014400001F01F01C84040F22801C2F200410860CB
:10145000009840F22401C2F2004108600F2000F021
:1014600013F820B1FFE701208DF8070005E000F038
:101470006FF800208DF80700FFE79DF8070002B025
:1014800080BD00000000000080B590B00E900E9866
:101490000F2810D8FFE70E99A1200190002200F03C
:1014A0007FF8019800F070F80E9840F2FC01C2F24B
:1014B0000041086003E001208DF83F0044E0FFE7B1
:1014C00044F2EC40C5F60200016841F08071016011
:1014D000006800F0807002900298FFE706A803A958
:1014E00002F0DAFC02F048FD4000059005984DF648
:1014F0008361C4F21B31A0FB01014FF0FF3000EB10
:101500009140049041F63870C2F200404EF2000162
:10151000C4F20001016040F2E731C160049941600A
:1015200000210161816003F09FFC48B9FFE741F6AB
:101530003870C2F2004003F00BFD8DF83F0003E06D
:1015400001208DF83F00FFE79DF83F0010B080BDFF
:1015500080B582B0FFE744F2F440C5F602000168AE
:1015600041F002010160006800F002000190019862
:10157000FFE76FF001000F21002200F011F802B028
:1015800080BD00000000000080B582B0ADF806000C
:10159000BDF9060008F054FC02B080BD0000000058
:1015A00080B586B0ADF816000491039208F060FC97
:1015B0000290BDF91600019002980499039A04F074
:1015C000ABF80146019808F05BFC06B080BD000056
:1015D00080B582B00190019808F09AFC02B080BDFD
:1015E00082B0019001980068009001990120C1F833
:1015F000D8040199002081F8CC04009A916941F047
:1016000000619161009A516D0323C1F200031943F7
:10161000516502B07047000082B001908DF8031050
:1016200002B070470000000082B00190ADF80210D7
:10163000BDF80200019909684862002002B07047B5
:1016400084B003908DF80B10ADF808200398006863
:10165000406A00909DF80B0048B9FFE7BDF80810FC
:10166000009840EA014003990968886233E00398D2
:101670000068816A009800EB1140009000208DF80E
:101680000700FFE79DF807009DF80B10013988421D
:1016900013D2FFE7039800689DF8071000EB810064
:1016A000D0F80411009800EB11400090FFE79DF87E
:1016B000070001308DF80700E4E7BDF80810009836
:1016C00040EA0140039909689DF80B2001EB820173
:1016D000C1F80001FFE7002004B0704700000000DF
:1016E00080B582B001900198D0F8E00406F008FAC5
:1016F00002B080BD0000000080B582B001908DF87E
:101700000310019AD2F8E0049DF8031001EBC10325
:1017100002EB8302126A06F04FF802B080BD0000AF
:1017200080B582B001908DF80310019AD2F8E004E0
:101730009DF8031001EBC10302EB8302D2F8602293
:1017400006F002F902B080BD80B582B00190019828
:10175000D0F8E00406F0DCF902B080BD0000000023
:1017600080B584B003908DF80B109DF80B00000637
:1017700000280CD5FFE703989DF80B1001F00F012E
:1017800001EBC10100EB8100143001900CE00398E3
:101790009DF80B1001F00F0101EBC10100EB81007E
:1017A00000F515700190FFE703980068019907F0B4
:1017B00063FF8DF80A009DF80A0004B080BD0000A8
:1017C00080B584B002908DF807109DF807000006E0
:1017D00000280FD5FFE702989DF8071001F00F01D0
:1017E00001EBC10100EB8100143000900099012051
:1017F00048700FE002989DF8071001F00F0101EB0F
:10180000C10100EB810000F51570009000990020E7
:101810004870FFE79DF8070000F00F00009908707E
:10182000FFE7029890F89404012804D1FFE7022012
:101830008DF80F0014E00299012081F89404FFE76D
:10184000FFE702980068009907F006FAFFE702999F
:10185000002081F89404FFE700208DF80F00FFE7D7
:101860009DF80F0004B080BD80B584B002908DF863
:1018700007109DF8070000F00F00029909798842CF
:1018800004D9FFE701208DF80F004DE09DF8070017
:10189000000600280FD5FFE702989DF8071001F019
:1018A0000F0101EBC10100EB8100143000900099A1
:1018B000012048700FE002989DF8071001F00F0119
:1018C00001EBC10100EB810000F51570009000995B
:1018D00000204870FFE70099002088709DF80700FD
:1018E00000F00F0000990870FFE7029890F8940448
:1018F000012804D1FFE702208DF80F0014E00299BF
:10190000012081F89404FFE7FFE70298006800993E
:1019100007F012FCFFE70299002081F89404FFE72A
:1019200000208DF80F00FFE79DF80F0004B080BD88
:1019300082B001908DF8031001989DF8031001F01A
:101940000F0101EBC10100EB8100D0F8680202B089
:10195000704700000000000080B586B004908DF84C
:101960000F10ADF80C208DF80B3000208DF80A0018
:101970009DF80F00000600280FD5FFE704989DF89A
:101980000F1001F00F0101EBC10100EB81001430D9
:1019900001900199012048700FE004989DF80F1004
:1019A00001F00F0101EBC10100EB810000F51570A2
:1019B0000190019900204870FFE79DF80F0000F0AA
:1019C0000F0001990870BDF80C006FF3DF2001993A
:1019D00088609DF80B00019908710198407820B14A
:1019E000FFE7019908784883FFE79DF80B0002287C
:1019F00004D1FFE7019900204871FFE7FFE7049851
:101A000090F89404012804D1FFE702208DF8170014
:101A100015E00499012081F89404FFE7FFE704989A
:101A20000068019906F0DCFFFFE70499002081F8C7
:101A30009404FFE79DF80A008DF81700FFE79DF872
:101A4000170006B080BD000080B586B005908DF807
:101A500013100392029305989DF8131001F00F01E3
:101A600001EBC10100EB810000F5157001900398B6
:101A70000199C860029801990861019900204861A4
:101A8000019948709DF8130000F00F00019908704B
:101A900005988079012804D1FFE703980199C8616E
:101AA000FFE7059A10680199927907F0E9FB002099
:101AB00006B080BD0000000080B584B002908DF8B3
:101AC00007109DF8070000F00F000299097988427D
:101AD00004D9FFE701208DF80F0058E09DF80700BA
:101AE000000600280FD5FFE702989DF8071001F0C7
:101AF0000F0101EBC10100EB81001430009000994F
:101B0000012048700DE002989DF8071001EBC1011B
:101B100000EB810000F515700090009900204870DE
:101B2000FFE70099012088709DF8070000F00F0082
:101B300000990870FFE7029890F89404012804D1F6
:101B4000FFE702208DF80F0021E00299012081F8C3
:101B50009404FFE7FFE702980068009907F03CFB58
:101B60009DF80700000740B9FFE7029A10689179D5
:101B700002F29C4207F090FAFFE7FFE7029900208B
:101B800081F89404FFE700208DF80F00FFE79DF82F
:101B90000F0004B080BD000080B586B005908DF8C0
:101BA00013100392029305989DF8131001F00F0192
:101BB00001EBC10100EB8100143001900398019901
:101BC000C860029801990861019900204861019953
:101BD000012048709DF8130000F00F000199087073
:101BE00005988079012804D1FFE703980199C8611D
:101BF000FFE7059A10680199927907F041FB0020F0
:101C000006B080BD0000000080B58CB00B900B9832
:101C100000680A900A9809900B98006807F06CFE1B
:101C2000002840F03484FFE70B98006807F0D4FEEA
:101C300010B9FFE700F02BBC0998D0F80808C0F3F2
:101C40000D200B99C1F8D4040B98006807F0C4FE6E
:101C50008007002807D5FFE70B980168486900F066
:101C600002004861FFE70B98006807F0B5FEC00668
:101C7000002862D5FFE70B980168886920F0100002
:101C800088610A98006A02900B98029901F00F018E
:101C900001EBC10100EB810000F51570089002987E
:101CA00000F4F0110220B0EB514F23D1FFE7BDF853
:101CB000080047F6F07108421BD0FFE70A98089920
:101CC000C968029AC2F30A1207F096FE029847F614
:101CD000F07100EA0103089AD06800EB1310D0609D
:101CE000029800EA01020899486900EB1210486165
:101CF000FFE71BE0029800F4F0110620B0EB514F13
:101D000012D1FFE70A980B9901F29C41082207F0D3
:101D100073FE029847F6F07100EA010208994869DB
:101D200000EB1210486100E0FFE7FFE70B98016845
:101D3000886940F010008861FFE70B98006807F0A1
:101D40004BFE0003002840F1A680FFE7002004902E
:101D50000B98006807F0ECFD0690FFE70698002856
:101D600000F09880FFE79DF81800C007002800F0F9
:101D70008A80FFE70B9800689DF8101007F014FEAA
:101D800005909DF81400C00760B1FFE70998049919
:101D900000EB41110120C1F8080B0B98049903F0E6
:101DA00043FDFFE79DF81400000700280CD5FFE76E
:101DB0000998049900EB41110820C1F8080B0B9811
:101DC000049903F0E9FCFFE79DF81400C006002821
:101DD00008D5FFE70998049900EB41111020C1F8DC
:101DE000080BFFE79DF81400800700282DD5FFE7BA
:101DF0000A9840690006002808D5FFE70999D1F83C
:101E0000040840F48060C1F80408FFE70B980499C7
:101E100001EBC10100EB810000F5157008900898F6
:101E2000C078012809D1FFE708990020C8700B98F5
:101E30009DF8101000F040FBFFE70998049900EBB3
:101E400041110220C1F8080BFFE79DF8140080063D
:101E5000002808D5FFE70998049900EB41112020DC
:101E6000C1F8080BFFE79DF815008006002809D58A
:101E7000FFE70998049900EB41114FF40050C1F8B5
:101E8000080BFFE7FFE7049801300490069840082C
:101E9000069063E7FFE70B98006807F09DFD40039D
:101EA000002840F1C680FFE70B98006807F02CFD82
:101EB000069000200490FFE70698002800F0B88004
:101EC000FFE79DF81800C007002800F0AA80FFE790
:101ED0000B9800689DF8101007F03EFD05909DF8E6
:101EE0001400C00700283ED0FFE7049800F00F015F
:101EF000012000FA01F10391039B099AD2F83418EA
:101F00009943C2F834180999049A01EB4211C1F8B7
:101F100008090B98807901281FD1FFE70B980499D5
:101F200001EBC10100EB8101CA69086A1044086233
:101F3000049888B9FFE70B98049901EBC10100EB05
:101F40008100406A40B9FFE70B99086801F29C42A2
:101F5000012107F0A1F8FFE7FFE70B989DF81010AB
:101F6000FFF7CAFBFFE79DF814000007002808D51B
:101F7000FFE70998049900EB41110820C1F808090E
:101F8000FFE79DF81400C006002808D5FFE7099870
:101F9000049900EB41111020C1F80809FFE79DF8F2
:101FA00014004006002808D5FFE70998049900EBC3
:101FB00041114020C1F80809FFE79DF8140080078F
:101FC000002822D5FFE70A98049907F02DFC0B980A
:101FD000049901EBC10100EB8100143008900898CE
:101FE000C078012809D1FFE708990020C8700B9834
:101FF0009DF8101000F050FAFFE70998049900EBE3
:1020000041110220C1F80809FFE79DF814000006FD
:10201000002805D5FFE70B98049903F0E9FCFFE7DA
:10202000FFE704980130049006984008069043E7C3
:10203000FFE70B98006807F0CFFCC00F00B3FFE785
:102040000999D1F8040820F00100C1F804080B98A0
:1020500090F8CC04012808D1FFE70B98002180F804
:10206000CC140B98FFF7D8FA03E00B9800F0BCFBF8
:10207000FFE70B980168486900F000404861FFE7FE
:102080000B98006807F0A8FC0005002811D5FFE7B1
:102090000998D0F80808C00720B1FFE70B9800F0B6
:1020A00037FCFFE70B980168486900F4006048615D
:1020B000FFE70B98006807F08FFC0001002820D58F
:1020C000FFE70B980168486900F0006048610B98D1
:1020D00090F8CC0480B9FFE70B98012180F8CC146C
:1020E0000B980068406DC0F383000B9AC2F8D004CF
:1020F0000B98FFF791FA03E00B9800F009FCFFE75B
:10210000FFE70B98006807F067FCC004002840F167
:102110008680FFE70999D1F8040820F00100C1F892
:1021200004080B980068102107F07EFB0020079040
:10213000FFE707980B990979884231D2FFE70998A0
:10214000079900EB41114FF67F30C1F80809099952
:10215000079A01EB4212D2F8001921F40011C2F8DB
:1021600000190999079A01EB4211C1F8080B099867
:10217000079900EB4111D1F8000B20F40010C1F8D1
:10218000000B0998079900EB4111D1F8000B40F0C2
:102190000060C1F8000BFFE7079801300790C8E71F
:1021A0000999D1F81C0840F00110C1F81C080B98DF
:1021B000C07B78B1FFE70999D1F8840840F00B00A3
:1021C000C1F884080999D1F8440840F00B00C1F81F
:1021D00044080FE00999D1F8140842F22B02104389
:1021E000C1F814080999D1F8100840F00B00C1F8A3
:1021F0001008FFE70999D1F8000820F4FE60C1F843
:1022000000080B9A1068917902F29C4206F044FF94
:102210000B980168486900F480504861FFE70B980B
:10222000006807F0D9FB800400281FD5FFE70B9852
:10223000006806F045FC0B98006807F035FB0B9929
:10224000C8710B980068019001F06AFE0146019880
:102250000B9AD27907F0CCFC0B9800F099FA0B9806
:102260000168486900F400504861FFE70B98006876
:1022700007F0B2FB000700280AD5FFE70B9800F033
:10228000BFFA0B980168486900F008004861FFE751
:102290000B98006807F0A0FB0006002825D5FFE793
:1022A0000A99886920F08000886101200490FFE786
:1022B00004980B990979884216D2FFE70B98049984
:1022C00001EBC10100EB810090F85702012806D113
:1022D000FFE70B989DF81010FFF742FAFFE7FFE7C2
:1022E000049801300490E3E7FFE70B98006807F0DB
:1022F00073FBC00200283CD5FFE701200490FFE7F4
:1023000004980B99097988422CD2FFE7099804991F
:1023100000EB4110D0F8000902900B98049901EBF2
:10232000C10100EB8100007E012816D1FFE79DF876
:102330000B000006002810D5FFE70B98049901EB6D
:10234000C10100EB81010120C8750B989DF81010A8
:1023500041F08001FFF704FAFFE7FFE7049801303E
:102360000490CDE70B980168486900F4801048613B
:10237000FFE70B98006807F02FFB8002002856D576
:10238000FFE701200490FFE704980B990979884240
:1023900046D2FFE70998049900EB4110D0F8000BF2
:1023A00002900B98049901EBC10100EB810090F8B9
:1023B000580201282FD1FFE79DF80B0000060028E6
:1023C00029D5FFE7029800F480310B98D0F8D404A7
:1023D00000F00100B0EB114F1DD1FFE70B980499FD
:1023E00001EBC10100EB8101012081F857020A993C
:1023F000886940F0800088610A98406900060028DA
:1024000008D4FFE70999D1F8040840F40070C1F836
:10241000040805E0FFE7FFE7049801300490B3E704
:102420000B980168486900F400104861FFE70B98B9
:10243000006807F0D1FA400000280AD5FFE70B98A2
:10244000FFF74EF90B980168486900F08040486139
:10245000FFE70B98006807F0BFFA4007002815D582
:10246000FFE70B980068406802909DF8080040075D
:10247000002804D5FFE70B98FFF766F9FFE7029AFB
:102480000B980168486810434860FFE7FFE70CB00D
:1024900080BD00000000000080B582B001908DF882
:1024A00003100198D0F8E0049DF8031005F0D4FB68
:1024B00002B080BD0000000080B582B001908DF8B0
:1024C00003100198D0F8E0049DF8031005F0FCFB20
:1024D00002B080BD0000000080B58CB00A900A9860
:1024E00020B9FFE701208DF82F000EE10A9890F83F
:1024F000950440B9FFE70A99002081F894040A98EE
:1025000000F00AF9FFE70A99032081F895040A9878
:10251000006806F0B5FD0A9B1868197C8DF820103C
:1025200059689A68DB680793069205910599069A9F
:10253000079BDDF820C0EE46CEF800C006F0D8FAC2
:1025400040B1FFE70A99022081F8950401208DF837
:102550002F00DAE00A980068002107F0A9FA40B1DC
:10256000FFE70A99022081F8950401208DF82F00D9
:10257000CBE000208DF82700FFE79DF827000A999F
:102580000979884241DAFFE70A989DF8271001EBA4
:10259000C10100EB8101012048759DF827000A99CF
:1025A00000EBC00201EB820108759DF827000A9933
:1025B00000EBC00201EB8201C8850A989DF8271044
:1025C00001EBC10100EB8101002008760A999DF81A
:1025D000272002EBC20201EB8201C8610A999DF833
:1025E000272002EBC20201EB820108620A999DF8E2
:1025F000272002EBC20201EB82014862FFE79DF84F
:10260000270001308DF82700B7E700208DF827005C
:10261000FFE79DF827000A99097988423EDAFFE72B
:102620000A989DF8271001EBC10100EB8101002001
:1026300081F855029DF827100A9A01EBC10302EBBD
:10264000830282F854120A999DF8272002EBC202F5
:1026500001EB820181F858020A999DF8272002EBCC
:10266000C20201EB8201C1F85C020A999DF82720A1
:1026700002EBC20201EB8201C1F860020A999DF8E7
:10268000272002EBC20201EB8201C1F86402FFE7DE
:102690009DF8270001308DF82700BAE70A9B1868DB
:1026A000197C8DF8101059689A68DB6803930292C0
:1026B00001910199029A039BDDF810C0EE46CEF815
:1026C00000C006F095FB40B1FFE70A99022081F8AF
:1026D000950401208DF82F0017E00A990020487416
:1026E0000A99012081F895040A98007B012804D1F9
:1026F000FFE70A98FEF774FFFFE70A98006806F004
:102700005FFB00208DF82F00FFE79DF82F000CB035
:1027100080BD00000000000080B5B2B0319002A87A
:10272000B821FDF7DCFE319800680021C4F20401F5
:1027300088422BD1FFE7002003904FF480200290C5
:102740004FF44010239002A800F062F918B1FFE79F
:10275000FDF7A2FFFFE700F04FF9FFE744F2D84092
:10276000C5F60200016841F000710160006800F0E8
:10277000007001900198FFE74D2000900521002294
:10278000FEF70EFF0098FEF7FFFEFFE732B080BDB8
:1027900080B582B0019001208DF803000198C079C6
:1027A00020B9FFE700208DF803000CE00198C07904
:1027B000022804D1FFE701208DF8030002E0FDF7B5
:1027C0006BFFFFE7FFE70198D0F8E0049DF80310E6
:1027D00005F082FB0198D0F8E00405F0F9FA02B0A8
:1027E00080BD00000000000080B582B0019001981B
:1027F000D0F8E00405F03CFB02B080BD0000000012
:1028000080B582B001900198D0F8E00405F044FB57
:1028100002B080BD0000000080B584B002908DF849
:102820000710FFE7029890F89404012804D1FFE70D
:1028300002208DF80F0019E00299012081F894041C
:10284000FFE7FFE79DF807000299487402980068C7
:102850009DF8071007F09CF9FFE70299002081F826
:102860009404FFE700208DF80F00FFE79DF80F00AC
:1028700004B080BD0000000080B582B001900199D5
:10288000D1F8E00401F29C4105F052FB02B080BD9A
:1028900080B584B00290029800680190FFE702982A
:1028A00090F89404012804D1FFE702208DF80F006E
:1028B00028E00299012081F89404FFE7FFE70198DE
:1028C000C068400600280BD5FFE70298407B01282E
:1028D00006D1FFE70199886B40F480308863FFE7F9
:1028E0000298006806F058FF0298006806F050FA57
:1028F000FFE70299002081F89404FFE700208DF89B
:102900000F00FFE79DF80F0004B080BD000000003D
:1029100080B582B001900198D0F8E00405F090FBFA
:1029200001980168D1F8000E40F00100C1F8000ED6
:102930000198C07A48B1FFE74EF61051CEF200017F
:10294000086840F006000860FFE702B080BD0000A4
:1029500080B584B0029044F60C00C5F60200006811
:1029600000F004010020B0EB910F13D1FFE744F613
:102970000C00C5F60200006800F0070002998842CA
:1029800004D0FFE701208DF80F002EE000208DF825
:102990000F002AE044F60C01C5F60201086820F099
:1029A0000700029A10430860FEF716FD0190FFE74A
:1029B00044F60400C5F60200006800F4005100204F
:1029C000B0EB513F0DD1FFE7FEF706FD0199401A2C
:1029D000B0F57A7F04D9FFE701208DF80F0004E0FD
:1029E000E6E700208DF80F00FFE79DF80F0004B028
:1029F00080BD00000000000044F60C01C5F6020195
:102A0000086840F080700860704700000000000017
:102A100080B59AB0189000208DF857008DF85600B8
:102A20001898C0780007002848D5FFE71898406E2E
:102A3000149078B1FFE71498B0F5801F13D0FFE72A
:102A40001498B0F5001F16D0FFE71498B0F5401F9A
:102A500019D019E044F22C41C5F60201086840F48F
:102A60000030086014E018980830022103F0BCF828
:102A70008DF857000CE018982830022103F09CF9DB
:102A80008DF8570004E003E001208DF85700FFE7C0
:102A90009DF8570060B9FFE744F25041C5F60201C6
:102AA000086820F44010189A526E1043086004E041
:102AB0009DF857008DF85600FFE7FFE7189840781B
:102AC000C007002840D0FFE71898806D13900428B5
:102AD00020D81399DFE801F0030C141C1D0044F208
:102AE0002C41C5F60201086840F40030086015E08A
:102AF00018980830002103F077F88DF857000DE0A2
:102B000018982830002103F057F98DF8570005E098
:102B100004E003E001208DF85700FFE79DF857001F
:102B200060B9FFE744F25041C5F60201086820F0A1
:102B30000700189A926D1043086004E09DF8570052
:102B40008DF85600FFE7FFE7189840784007002807
:102B500056D5FFE71898D0F8A4001290C8B1FFE747
:102B60001298B0F5001F1DD0FFE71298B0F5800F46
:102B700020D0FFE71298B0F5C00F23D0FFE71298DE
:102B8000B0F5000F1FD0FFE71298B0F5200F1BD053
:102B90001BE044F22C41C5F60201086840F4003005
:102BA000086016E018980830002103F01DF88DF831
:102BB00057000EE018982830002103F0FDF88DF83A
:102BC000570006E005E004E003E001208DF857001F
:102BD000FFE79DF8570068B9FFE744F25841C5F692
:102BE0000201086820F46000189AD2F8A42010436B
:102BF000086004E09DF857008DF85600FFE7FFE7F6
:102C0000189840780007002856D5FFE71898D0F8A4
:102C1000A8001190C8B1FFE71198B0F1807F1DD0D6
:102C2000FFE71198B0F1007F20D0FFE71198B0F1D5
:102C3000407F23D0FFE71198B0F1806F1FD0FFE7EE
:102C40001198B0F1A06F1BD01BE044F22C41C5F6E7
:102C50000201086840F40030086016E01898083057
:102C6000002102F0C1FF8DF857000EE018982830BF
:102C7000002103F0A1F88DF8570006E005E004E01C
:102C800003E001208DF85700FFE79DF8570068B971
:102C9000FFE744F25841C5F60201086820F0E06001
:102CA000189AD2F8A8201043086004E09DF8570055
:102CB0008DF85600FFE7FFE71898C07880070028D6
:102CC0003ED5FFE71898C06C1090F0B1FFE7109860
:102CD000102808D0FFE7109820280DD0FFE71098A3
:102CE000302811D012E044F22C41C5F602010868E8
:102CF00040F4003008600DE018980830022102F01E
:102D000073FF8DF8570005E004E003E001208DF823
:102D10005700FFE79DF8570060B9FFE744F24C41C8
:102D2000C5F60201086820F03000189AD26C1043F2
:102D3000086004E09DF857008DF85600FFE7FFE7B4
:102D400018984078C00600284ED5FFE71898C06D47
:102D50000F90A0B1FFE70F98B0F5805F18D0FFE7A4
:102D60000F98B0F5005F1BD0FFE70F98B0F5405FFC
:102D70001ED0FFE70F98B0F5804F1AD01AE044F24A
:102D80002C41C5F60201086840F40030086015E0E7
:102D900018980830002102F027FF8DF857000DE049
:102DA00018982830002103F007F88DF8570005E047
:102DB00004E003E001208DF85700FFE79DF857007D
:102DC00060B9FFE744F25041C5F60201086820F4FB
:102DD000E040189AD26D1043086004E09DF8570057
:102DE0008DF85600FFE7FFE7189840788006002826
:102DF0004CD5FFE71898006E0E90C8B1FFE70E980B
:102E0000B0F5803F15D0FFE70E98B0F5003F18D021
:102E1000FFE70E98B0F5403F1BD0FFE70E98B0F5E6
:102E2000802F17D0FFE70E98B0F5A02F13D013E036
:102E300016E018980830012102F0D6FE8DF85700F0
:102E40000EE018982830012102F0B6FF8DF85700E7
:102E500006E005E004E003E001208DF85700FFE7FD
:102E60009DF8570060B9FFE744F25041C5F60201F2
:102E7000086820F4E020189A126E1043086004E0FD
:102E80009DF857008DF85600FFE7FFE71898407847
:102E9000400600284ED5FFE71898D0F8AC000D90FA
:102EA000C8B1FFE70D98B0F1805F15D0FFE70D982E
:102EB000B0F1005F18D0FFE70D98B0F1405F1BD074
:102EC000FFE70D98B0F1804F17D0FFE70D98B0F1F4
:102ED000A04F13D013E016E018980830012102F03B
:102EE00083FE8DF857000EE018982830012102F07B
:102EF00063FF8DF8570006E005E004E003E00120E1
:102F00008DF85700FFE79DF8570068B9FFE744F2D6
:102F10005841C5F60201086820F0E040189AD2F83E
:102F2000AC201043086004E09DF857008DF856006F
:102F3000FFE7FFE718984078000600283BD5FFE739
:102F40001898C06E0C90D8B1FFE70C98B0F1805F74
:102F500005D0FFE70C98B0F1005F09D011E044F212
:102F60002C41C5F60201086840F4003008600CE00E
:102F700018980830012102F037FE8DF8570004E060
:102F800003E001208DF85700FFE79DF8570060B976
:102F9000FFE744F25041C5F60201086820F04050B6
:102FA000189AD26E1043086004E09DF857008DF81F
:102FB0005600FFE7FFE71898C078C007002837D011
:102FC000FFE71898806C0B90032817D80B99DFE85F
:102FD00001F014020B1344F22C41C5F602010868FB
:102FE00040F4003008600DE018980830022102F02B
:102FF000FBFD8DF8570005E004E003E001208DF8AB
:103000005700FFE79DF8570060B9FFE744F24C41D5
:10301000C5F60201086820F00300189A926C10436C
:10302000086004E09DF857008DF85600FFE7FFE7C1
:10303000189880784006002840F1B480FFE744F6F5
:103040000001C5F60201086840F480700860FEF7D0
:10305000C3F91690FFE744F60000C5F602000068C9
:10306000C00500280CD4FFE7FEF7B6F91699401A00
:10307000652804D3FFE703208DF8570000E0EAE756
:103080009DF85700002840F08780FFE744F2704029
:10309000C5F60200006800F440701899D1F8B0102D
:1030A00001F44071884213D0FFE744F27041C5F645
:1030B0000201086820F440701790086840F48030DE
:1030C0000860086820F48030086017980860FFE7FF
:1030D0001898D0F8B000B0F5807F1FD1FFE7FEF759
:1030E0007BF91690FFE744F27040C5F602000068D5
:1030F00000F002010020B0EB510F0ED1FFE7FEF708
:103100006BF91699401A41F28931884204D3FFE7DE
:1031100003208DF8570000E0E5E7FFE79DF8570032
:10312000A0BBFFE7FFE71898D0F8B00000F44070AC
:10313000B0F5407F13D1FFE744F21041C5F602011C
:10314000086820F47C50189AD2F8B0204FF6F0436B
:10315000C0F6FF731A4040EA1210086008E044F21B
:103160001041C5F60201086820F47C500860FFE7B2
:103170001898D0F8B0206FF31F3244F27041C5F6B2
:103180000201086810430860FFE704E09DF857005B
:103190008DF85600FFE704E09DF857008DF85600C3
:1031A000FFE7FFE718980068C007002800F04C8090
:1031B000FFE71898806F0A9028282BD80A99DFE833
:1031C00001F01529292929292929162929292929F7
:1031D00029291E292929292929292629292929296D
:1031E00029292729292929292929280016E0189879
:1031F0000830012102F0F8FC8DF857000EE0189815
:103200002830012102F0D8FD8DF8570006E005E0D6
:1032100004E003E001208DF85700FFE79DF8570018
:1032200060B9FFE744F25441C5F60201086820F096
:103230003800189A926F1043086004E09DF8570018
:103240008DF85600FFE7FFE7189800788007002800
:1032500039D5FFE71898406F0990052819D80999C2
:10326000DFE801F003040C14151616E01898083076
:10327000012102F0B9FC8DF857000EE018982830B3
:10328000012102F099FD8DF8570006E005E004E009
:1032900003E001208DF85700FFE79DF8570060B963
:1032A000FFE744F25441C5F60201086820F0070028
:1032B000189A526F1043086004E09DF857008DF88B
:1032C0005600FFE7FFE718980078400700283BD535
:1032D000FFE71898D0F890000890052819D80899A9
:1032E000DFE801F003040C14151616E018980830F6
:1032F000012102F079FC8DF857000EE01898283073
:10330000012102F059FD8DF8570006E005E004E0C8
:1033100003E001208DF85700FFE79DF8570068B9DA
:10332000FFE744F25841C5F60201086820F00700A3
:10333000189AD2F890201043086004E09DF85700D6
:103340008DF85600FFE7FFE7189800788006002800
:103350004ED5FFE71898D0F88C000790C8B1FFE76A
:103360000798B0F1805F15D0FFE70798B0F1005FD4
:1033700018D0FFE70798B0F1405F1BD0FFE7079830
:10338000B0F1804F17D0FFE70798B0F1A04F13D0EE
:1033900013E016E018980830002102F025FC8DF8A3
:1033A00057000EE018982830022102F005FD8DF834
:1033B000570006E005E004E003E001208DF8570027
:1033C000FFE79DF8570068B9FFE744F25441C5F69E
:1033D0000201086820F0E040189AD2F88C201043CF
:1033E000086004E09DF857008DF85600FFE7FFE7FE
:1033F00018980078400600284ED5FFE71898D0F8B6
:1034000098000690C8B1FFE70698B0F5806F15D018
:10341000FFE70698B0F5006F18D0FFE70698B0F503
:10342000406F1BD0FFE70698B0F5805F17D0FFE72D
:103430000698B0F5A05F13D013E016E01898083096
:10344000002102F0D1FB8DF857000EE018982830CB
:10345000022102F0B1FC8DF8570006E005E004E01F
:1034600003E001208DF85700FFE79DF8570068B989
:10347000FFE744F25841C5F60201086820F4E05025
:10348000189AD2F898201043086004E09DF857007D
:103490008DF85600FFE7FFE718980078000600282F
:1034A0004ED5FFE71898D0F89C000590C8B1FFE70B
:1034B0000598B0F5005F15D0FFE70598B0F5804F8F
:1034C00018D0FFE70598B0F5C04F1BD0FFE705986F
:1034D000B0F5004F17D0FFE70598B0F5204F13D097
:1034E00013E016E018980830002102F07DFB8DF8FB
:1034F00057000EE018982830022102F05DFC8DF88C
:10350000570006E005E004E003E001208DF85700D5
:10351000FFE79DF8570068B9FFE744F25841C5F648
:103520000201086820F46040189AD2F89C201043E9
:10353000086004E09DF857008DF85600FFE7FFE7AC
:10354000189800780007002820D5FFE71898D0F8D1
:103550008000B0F5805F0CD1FFE718982830022179
:1035600002F02AFC20B1FFE701208DF85600FFE7AA
:10357000FFE744F25441C5F60201086820F44050C8
:10358000189AD2F8802010430860FFE71898007856
:10359000C006002820D5FFE71898D0F89400B0F5B1
:1035A000807F0CD1FFE718982830022102F004FC3C
:1035B00020B1FFE701208DF85600FFE7FFE744F256
:1035C0005841C5F60201086820F44070189AD2F8F4
:1035D000942010430860FFE71898807800070028BF
:1035E0003CD5FFE71898D0F8A000049050B1FFE751
:1035F0000498B0F5803F0DD0FFE70498B0F5003F88
:1036000010D010E018980830002102F0EDFA8DF883
:1036100057000CE018982830022102F0CDFB8DF8FD
:10362000570004E003E001208DF85700FFE79DF804
:10363000570068B9FFE744F25841C5F6020108682F
:1036400020F44030189AD2F8A0201043086004E01B
:103650009DF857008DF85600FFE7FFE7189880782F
:10366000400700283FD5FFE71898D0F88400039062
:10367000B0F5801F0AD0FFE70398B0F5001F0ED009
:10368000FFE70398B0F5401F11D011E044F22C4140
:10369000C5F60201086840F4003008600CE0189894
:1036A0002830012102F088FB8DF8570004E003E088
:1036B00001208DF85700FFE79DF8570068B9FFE734
:1036C00044F25441C5F60201086820F44010189AEB
:1036D000D2F884201043086004E09DF857008DF86C
:1036E0005600FFE7FFE718988078C007A8B3FFE708
:1036F0001898006D029028B1FFE70298B0F5803F5E
:1037000009D010E044F22C41C5F60201086840F4EB
:10371000003008600BE018980830022102F064FACB
:103720008DF8570003E001208DF85700FFE79DF862
:10373000570060B9FFE744F24C41C5F60201086842
:1037400020F48030189A126D1043086004E09DF850
:1037500057008DF85600FFE7FFE71898C0788006FD
:1037600000280CD5FFE718982830022102F024FB2E
:1037700020B1FFE701208DF85600FFE7FFE718981A
:103780008078800700283AD5FFE71898C06F01902D
:10379000D0B1FFE70198B0F5807F0AD0FFE701982C
:1037A000B0F5007F0ED0FFE70198B0F5407F0AD05A
:1037B0000BE044F22C41C5F60201086840F40030E9
:1037C000086006E005E004E003E001208DF8570002
:1037D000FFE79DF8570060B9FFE744F25441C5F692
:1037E0000201086820F44070189AD26F10430860F4
:1037F00004E09DF857008DF85600FFE7FFE71898A2
:103800008078C00600280CD5FFE744F25041C5F689
:103810000201086820F00040189A126F10430860F7
:10382000FFE718988078800600280CD5FFE744F25F
:103830005041C5F60201086820F08070189A926E17
:1038400010430860FFE71898C0784006002811D59B
:10385000FFE7FFE744F21041C5F60201086820F4D3
:10386000004008601898D0F8B42008681043086039
:10387000FFE7FFE71898C078000600280CD5FFE79F
:1038800044F24C41C5F60201086820F04050189AF5
:10389000526D10430860FFE71898807800060028F2
:1038A0000DD5FFE744F25441C5F60201086820F443
:1038B0004000189AD2F8882010430860FFE7189853
:1038C0000079C00790B1FFE718980830002102F096
:1038D0008BF98DF857009DF8570008B9FFE704E011
:1038E0009DF857008DF85600FFE7FFE7189800791C
:1038F0008007002812D5FFE718980830012102F050
:1039000073F98DF857009DF8570008B9FFE704E0F8
:103910009DF857008DF85600FFE7FFE718980079EB
:103920004007002812D5FFE718980830022102F05E
:103930005BF98DF857009DF8570008B9FFE704E0E0
:103940009DF857008DF85600FFE7FFE718980079BB
:103950000007002812D5FFE718982830002102F050
:103960002BFA8DF857009DF8570008B9FFE704E0DF
:103970009DF857008DF85600FFE7FFE7189800798B
:10398000C006002812D5FFE718982830012102F060
:1039900013FA8DF857009DF8570008B9FFE704E0C7
:1039A0009DF857008DF85600FFE7FFE7189800795B
:1039B0008006002812D5FFE718982830022102F06F
:1039C000FBF98DF857009DF8570008B9FFE704E0B0
:1039D0009DF857008DF85600FFE7FFE79DF8560069
:1039E00020B9FFE700208DF8670003E001208DF883
:1039F0006700FFE79DF867001AB080BD0000000077
:103A000080B586B004900391049820B9FFE70120A7
:103A10008DF817003CE2039842F20001C5F2002144
:103A2000096801F00F01884216D9FFE742F2000051
:103A3000C5F20020016821F00F01039A11430160D3
:103A4000006800F00F000399884204D0FFE70120CE
:103A50008DF817001CE2FFE7049800784007002863
:103A600019D5FFE70498006944F21841C5F6020130
:103A7000096801F0700188420CD9FFE744F218414F
:103A8000C5F60201086820F07000049A126910431C
:103A90000860FFE7FFE7049800780007002819D5C1
:103AA000FFE70498406944F21C41C5F60201096829
:103AB00001F0700188420CD9FFE744F21C41C5F6C1
:103AC0000201086820F07000049A526910430860EF
:103AD000FFE7FFE704980078C006002819D5FFE744
:103AE0000498806944F21C41C5F60201096801F49A
:103AF000E06188420CD9FFE744F21C41C5F602019F
:103B0000086820F4E060049A926910430860FFE7B7
:103B1000FFE7049800788006002819D5FFE704988D
:103B2000C06944F22041C5F60201096801F0700144
:103B300088420CD9FFE744F22041C5F6020108682B
:103B400020F07000049AD26910430860FFE7FFE795
:103B5000049800788007002819D5FFE70498C0680A
:103B600044F21841C5F60201096801F00F018842CC
:103B70000CD9FFE744F21841C5F60201086820F0AD
:103B80000F00049AD26810430860FFE7FFE704982B
:103B90000078C007002800F08C80FFE744F218414D
:103BA000C5F60201086820F47060049A9268104318
:103BB000086004984068022811D1FFE744F20040F1
:103BC000C5F60200006800F400310020B0EB514F50
:103BD00004D1FFE701208DF8170059E13EE0049879
:103BE0004068032811D1FFE744F20040C5F6020007
:103BF000006800F000710020B0EB516F04D1FFE7C6
:103C000001208DF8170043E127E00498406801285F
:103C100011D1FFE744F20040C5F60200006800F44D
:103C200080710020B0EB112F04D1FFE701208DF847
:103C300017002DE110E044F20040C5F602000068D4
:103C400000F004010020B0EB910F04D1FFE7012048
:103C50008DF817001CE1FFE7FFE7FFE744F2104192
:103C6000C5F60201086820F00700049A5268104364
:103C70000860FDF7B1FB0190FFE744F21040C5F684
:103C80000200006800F0380004994968B0EBC10FE9
:103C90000ED0FFE7FDF7A0FB0199401A41F28931F0
:103CA000884204D3FFE703208DF81700F0E0E4E733
:103CB000FFE7049800788007002819D5FFE70498EB
:103CC000C06844F21841C5F60201096801F00F010D
:103CD00088420CD2FFE744F21841C5F60201086899
:103CE00020F00F00049AD26810430860FFE7FFE756
:103CF000039842F20001C5F20021096801F00F01AA
:103D0000884216D2FFE742F20000C5F200200168A7
:103D100021F00F01039A11430160006800F00F00C9
:103D20000399884204D0FFE701208DF81700AFE027
:103D3000FFE7049800784007002819D5FFE70498AA
:103D4000006944F21841C5F60201096801F07001EA
:103D500088420CD2FFE744F21841C5F60201086818
:103D600020F07000049A126910430860FFE7FFE733
:103D7000049800780007002819D5FFE704984069E7
:103D800044F21C41C5F60201096801F07001884245
:103D90000CD2FFE744F21C41C5F60201086820F08E
:103DA0007000049A526910430860FFE7FFE7049827
:103DB0000078C006002819D5FFE70498806944F20E
:103DC0001C41C5F60201096801F4E06188420CD289
:103DD000FFE744F21C41C5F60201086820F4E060E8
:103DE000049A926910430860FFE7FFE7049800789F
:103DF0008006002819D5FFE70498C06944F22041E5
:103E0000C5F60201096801F0700188420CD2FFE793
:103E100044F22041C5F60201086820F07000049ABF
:103E2000D26910430860FFE7FFE700F0B9F844F2F9
:103E30001842C5F602021168C1F303234CF6205163
:103E4000C0F60001CB5C03F01F03D840009000983F
:103E5000126802F00F02895C01F01F01C84040F2B5
:103E60002801C2F200410860009840F22401C2F229
:103E70000041086040F2FC00C2F200400068FDF71B
:103E800003FB8DF80B009DF80B008DF81700FFE782
:103E90009DF8170006B080BD82B001900091019995
:103EA0003F20086044F21040C5F60200006800F0B0
:103EB00007000199486044F21840C5F60200016805
:103EC00001F47061019A9160016801F00F01019A9B
:103ED000D160006800F070000199086144F21C4054
:103EE000C5F60200016801F07001019A5161006895
:103EF00000F4E0600199886144F22040C5F60200B8
:103F0000006800F070000199C86142F20000C5F23B
:103F10000020006800F00F000099086002B07047B0
:103F200080B582B000F03CF844F21842C5F60202B7
:103F30001168C1F303234CF62051C0F60001CB5C9D
:103F400003F01F03D84001900198126802F00F029D
:103F5000895C01F01F0120FA01F140F22800C2F251
:103F600000400160019940F22402C2F20042116057
:103F7000006802B080BD000080B5FFF7D1FF44F2B9
:103F80001C41C5F602010968C1F302224CF620511A
:103F9000C0F60001895C01F01F01C84080BD00002F
:103FA0008AB044F21040C5F60200006800F0380004
:103FB00001460191182800F269810199DFE811F0AA
:103FC0001900660166016601660166016601660107
:103FD0003A006601660166016601660166016601D6
:103FE00040006601660166016601660166016601C0
:103FF000460044F20040C5F60200006800F02001CF
:104000000020B0EB511F0ED0FFE744F20040C5F690
:1040100002000068C0F3C10149F20000C0F2D030D4
:10402000C840029005E049F20000C0F2D030029092
:10403000FFE731E140F60010C0F23D0002902BE1B5
:1040400043F20060C0F26E10029025E144F2284075
:10405000C5F60200016801F0030108910068C0F391
:104060000510079044F22C40C5F60200006800F0ED
:1040700001000690069844F23441C5F60201096831
:1040800089B2C908484300EE100AB8EE400A8DED27
:10409000040A0798002800F0F580FFE708980090D0
:1040A00048B1FFE70098012869D0FFE7009802288F
:1040B00000F08980ABE044F20040C5F602000068E1
:1040C00000F020010020B0EB511F33D0FFE744F295
:1040D0000040C5F602000068C0F3C10149F20000CB
:1040E000C0F2D030C84005909DED050AB8EE400AF8
:1040F0009DED071AB8EE411A80EE010A44F23040F5
:10410000C5F6020000686FF35F2001EE100AB8EEFA
:10411000411A9DED042A9FED633A82EE032A31EEA7
:10412000021AB7EE002A31EE021A20EE010A8DEDD6
:10413000030A23E09DED070AB8EE401A9FED5B0AE3
:1041400080EE010A44F23040C5F6020000686FF3C9
:104150005F2001EE100AB8EE411A9DED042A9FED92
:10416000513A82EE032A31EE021AB7EE002A31EEFE
:10417000021A20EE010A8DED030AFFE76BE09DEDC8
:10418000070AB8EE401A9FED480A80EE010A44F291
:104190003040C5F6020000686FF35F2001EE100AA0
:1041A000B8EE411A9DED042A9FED3E3A82EE032AB5
:1041B00031EE021AB7EE002A31EE021A20EE010AA1
:1041C0008DED030A47E09DED070AB8EE401A9FED1A
:1041D000340A80EE010A44F23040C5F6020000685D
:1041E0006FF35F2001EE100AB8EE411A9DED042A2C
:1041F0009FED2C3A82EE032A31EE021AB7EE002A26
:1042000031EE021A20EE010A8DED030A23E09DED46
:10421000070AB8EE401A9FED240A80EE010A44F224
:104220003040C5F6020000686FF35F2001EE100A0F
:10423000B8EE411A9DED042A9FED1A3A82EE032A48
:1042400031EE021AB7EE002A31EE021A20EE010A10
:104250008DED030AFFE744F23040C5F60200006826
:1042600081B2012000EB512009909DED030A9DEDE4
:10427000091AB8EE411A80EE010ABCEEC00A8DEDB3
:10428000020A02E000200290FFE705E040F600107D
:10429000C0F23D000290FFE702980AB0704700BFED
:1042A000001BB74B000000460024744A0024744CE5
:1042B00080B58CB00A900A9828B9FFE701208DF8E4
:1042C0002F0000F001BD0A980078C007002800F018
:1042D000B980FFE744F21040C5F60200006800F024
:1042E0003800069044F22840C5F6020000680590A8
:1042F000069810280AD0FFE7069818281CD1FFE777
:10430000059800F00300022816D1FFE744F20040B0
:10431000C5F60200006800F400310020B0EB514FF8
:1043200009D0FFE70A98406828B9FFE701208DF817
:104330002F0000F0C9BC84E0FFE70A984068B0F5A0
:10434000803F09D1FFE744F20041C5F60201086849
:1043500040F48030086032E00A98406868B9FFE7AE
:1043600044F20041C5F60201086820F4803008607C
:10437000086820F48020086020E00A984068B0F5C2
:10438000A02F0DD1FFE744F20041C5F602010868F5
:1043900040F480200860086840F4803008600CE039
:1043A00044F20041C5F60201086820F4803008603C
:1043B000086820F480200860FFE7FFE7FFE7FFE7D9
:1043C0000A984068F0B1FFE7FDF706F80990FFE7AB
:1043D00044F20040C5F60200006800F400310020FD
:1043E000B0EB514F0DD1FFE7FCF7F6FF0999401AEA
:1043F000652805D3FFE703208DF82F0000F064BC8B
:10440000E6E71DE0FCF7E8FF0990FFE744F2004013
:10441000C5F60200006800F400310020B0EB514FF7
:104420000DD0FFE7FCF7D8FF0999401A652805D39E
:10443000FFE703208DF82F0000F046BCE6E7FFE71A
:10444000FFE7FFE70A9800788007002840F1C58061
:10445000FFE744F21040C5F60200006800F03800A3
:10446000049044F22840C5F60200006803900498C6
:1044700050B1FFE70498182850D1FFE79DF80C00D1
:10448000800700284AD1FFE744F20040C5F6020049
:10449000006800F004010020B0EB910F09D0FFE7A5
:1044A0000A98C06828B9FFE701208DF82F0000F0B6
:1044B0000BBC44F20041C5F60201086820F0190067
:1044C0000A9AD26810430860FCF786FF0990FFE75C
:1044D00044F20040C5F60200006800F0040100202C
:1044E000B0EB910F0CD1FFE7FCF776FF0999401A6A
:1044F000032804D3FFE703208DF82F00E4E3E7E768
:1045000044F20441C5F60201086820F0FE400A9A10
:10451000126940EA02600860FFE75DE00A98C0683F
:10452000A0B3FFE744F20041C5F60201086820F09D
:1045300019000A9AD26810430860FCF74DFF0990F1
:10454000FFE744F20040C5F60200006800F00401F5
:104550000020B0EB910F0CD1FFE7FCF73DFF09996C
:10456000401A032804D3FFE703208DF82F00ABE3A4
:10457000E7E744F20441C5F60201086820F0FE4076
:104580000A9A126940EA0260086024E044F200419D
:10459000C5F60201086820F001000860FCF71CFF66
:1045A0000990FFE744F20040C5F60200006800F001
:1045B00004010020B0EB910F0CD0FFE7FCF70CFFDB
:1045C0000999401A032804D3FFE703208DF82F0030
:1045D0007AE3E7E7FFE7FFE7FFE70A980078C0061E
:1045E000002840F1A080FFE744F21040C5F6020029
:1045F000006800F03800029044F22840C5F602003E
:1046000000680190029808280AD0FFE7029818284D
:104610002BD1FFE7019800F00300012825D1FFE727
:1046200044F20040C5F60200006800F480710020EA
:10463000B0EB112F09D0FFE70A98C069802804D099
:10464000FFE701208DF82F003EE3FFE744F20C4125
:10465000C5F60201086820F07C500A9A126A40EA06
:1046600002600860FFE7FFE75CE00A98C06998B362
:10467000FFE744F20041C5F60201086840F08000FF
:104680000860FCF7A9FE0990FFE744F20040C5F678
:104690000200006800F480710020B0EB112F0CD1F3
:1046A000FFE7FCF799FE0999401A032804D3FFE7B6
:1046B00003208DF82F0007E3E7E7FFE744F20C4102
:1046C000C5F60201086820F07C500A9A126A40EA96
:1046D00002600860FFE724E044F20041C5F60201F1
:1046E000086820F080000860FCF776FE0990FFE77C
:1046F00044F20040C5F60200006800F4807100201A
:10470000B0EB112F0CD0FFE7FCF766FE0999401AB9
:10471000032804D3FFE703208DF82F00D4E2E7E756
:10472000FFE7FFE7FFE70A980078000700284FD56A
:10473000FFE70A98406928B3FFE744F27441C5F6E1
:104740000201086840F001000860FCF745FE09908E
:10475000FFE744F27440C5F60200006800F0020171
:104760000020B0EB510F0CD1FFE7FCF735FE0999A3
:10477000401A032804D3FFE703208DF82F00A3E29B
:10478000E7E724E044F27441C5F60201086820F02E
:1047900001000860FCF720FE0990FFE744F2744036
:1047A000C5F60200006800F002010020B0EB510FD6
:1047B0000CD0FFE7FCF710FE0999401A032804D338
:1047C000FFE703208DF82F007EE2E7E7FFE7FFE732
:1047D0000A980078800600284FD5FFE70A9880697C
:1047E00028B3FFE744F20041C5F60201086840F42F
:1047F00080500860FCF7F0FD0990FFE744F20040AC
:10480000C5F60200006800F400510020B0EB513FF3
:104810000CD1FFE7FCF7E0FD0999401A032804D307
:10482000FFE703208DF82F004EE2E7E724E044F293
:104830000041C5F60201086820F480500860FCF7CA
:10484000CBFD0990FFE744F20040C5F60200006886
:1048500000F400510020B0EB513F0CD0FFE7FCF713
:10486000BBFD0999401A032804D3FFE703208DF804
:104870002F0029E2E7E7FFE7FFE70A980078400703
:10488000002840F1A780FFE744F60001C5F60201C9
:10489000086840F480700860FCF79EFD0990FFE70F
:1048A00044F60000C5F602000068C00500280CD4DC
:1048B000FFE7FCF791FD0999401A652804D3FFE74B
:1048C00003208DF82F00FFE1EAE7FFE70A988068F0
:1048D000012809D1FFE744F27041C5F602010868DA
:1048E00040F00100086031E00A98806868B9FFE78D
:1048F00044F27041C5F60201086820F0010008602A
:10490000086820F0040008601FE00A988068052805
:104910000DD1FFE744F27041C5F60201086840F08E
:1049200004000860086840F0010008600CE044F2F0
:104930007041C5F60201086820F0010008600868AF
:1049400020F004000860FFE7FFE7FFE7FFE70A98B1
:104950008068F8B1FFE7FCF73FFD0990FFE744F2FC
:104960007040C5F60200006800F002010020B0EBC4
:10497000510F0ED1FFE7FCF72FFD0999401A41F2C4
:104980008931884204D3FFE703208DF82F009BE193
:10499000E5E71EE0FCF720FD0990FFE744F27040D8
:1049A000C5F60200006800F002010020B0EB510FD4
:1049B0000ED0FFE7FCF710FD0999401A41F289314A
:1049C000884204D3FFE703208DF82F007CE1E5E760
:1049D000FFE7FFE70A98406A002800F07181FFE7CF
:1049E00044F21040C5F60200006800F038001828B4
:1049F00000F0E080FFE70A98406A022840F0B480A7
:104A0000FFE744F20041C5F60201086820F080701B
:104A10000860FCF7E1FC0990FFE744F20040C5F6AE
:104A20000200006800F000710020B0EB516F0CD064
:104A3000FFE7FCF7D1FC0999401A032804D3FFE7EC
:104A400003208DF82F003FE1E7E7FFE744F228411C
:104A5000C5F60201086840F2F33290430A9B9A6A55
:104A6000DB6A42EA0312104308600A99086BD1F826
:104A700034C08B6BCA6B01386FF35F204FF6006157
:104A8000CFF6FF7101EB4C2189B208440021CFF62B
:104A9000FF7101EB034101F4FE0108444FF07F4137
:104AA00001EB026101F0FE41084444F23041C5F6D9
:104AB00002010860FFE744F22C41C5F602010091B3
:104AC000086820F00100086044F23442C5F6020292
:104AD00010684FF6F87398430A9B9B6C40EAC3003A
:104AE0001060086820F00C000A9A126C10430860ED
:104AF000086820F002000A9A526C104308600868A7
:104B000040F480300860086840F4003008600868AD
:104B100040F480200860086840F00100086044F21A
:104B20000041C5F60201086840F080700860FCF79B
:104B300053FC0990FFE744F20040C5F6020000680C
:104B400000F000710020B0EB516F0CD1FFE7FCF7D3
:104B500043FC0999401A032804D3FFE703208DF88A
:104B60002F00B1E0E7E724E044F20041C5F602017E
:104B7000086820F080700860FCF72EFC0990FFE7C1
:104B800044F20040C5F60200006800F00071002009
:104B9000B0EB516F0CD0FFE7FCF71EFC0999401AEF
:104BA000032804D3FFE703208DF82F008CE0E7E70C
:104BB000FFE784E044F22840C5F602000068089050
:104BC00044F23040C5F60200006807900A98406A37
:104BD000012837D0FFE7089800F003000A99896A96
:104BE00088422FD1FFE7089800F47C710A98C06AC8
:104BF000B0EB111F26D1FFE707986FF35F200A99EA
:104C0000096B013988421DD1FFE7BDF81C100A98D5
:104C1000406B0138B0EB512F14D1FFE7079800F437
:104C2000FE010A98806B0138B0EB114F0AD1FFE703
:104C3000079800F0FE410A98C06B0138B0EB116F85
:104C400004D0FFE701208DF82F003DE044F234400E
:104C5000C5F60200006880B2C00808900A98806C0F
:104C60000899884229D0FFE744F22C41C5F6020199
:104C7000086820F001000860FCF7AEFB0990FFE730
:104C8000FCF7AAFB0999401A08B9FFE7F8E744F2D4
:104C90003441C5F6020108684FF6F87290430A9A4B
:104CA000926C40EAC200086044F22C41C5F6020151
:104CB000086840F001000860FFE7FFE7FFE7FFE753
:104CC00000208DF82F00FFE79DF82F000CB080BD6D
:104CD00081B0009001B0704781B0009001B0704782
:104CE00081B0009001B0704785B003900291FFE75A
:104CF000039890F83C00012804D1FFE702208DF8CA
:104D00001300ABE00399012081F83C00FFE7FFE7C7
:104D10000399022081F83D000398006840680190E3
:104D20000398006880680090039800680021C4F22E
:104D30000101884209D0FFE70398006840F2004172
:104D4000C4F2010188420AD1FFE7019820F4700003
:104D5000019002984168019808430190FFE701988B
:104D600020F07000019002980168019808430190BA
:104D70000198039909684860039800680021C4F20B
:104D8000010188424ED0FFE703980068B0F1804FE0
:104D900048D0FFE70398006840F20041C4F20001E8
:104DA00088423FD0FFE70398006840F60001C4F254
:104DB0000001884236D0FFE70398006840F60041C2
:104DC000C4F2000188422DD0FFE70398006840F24A
:104DD0000041C4F20101884224D0FFE70398006833
:104DE00041F60001C4F2000188421BD0FFE703989E
:104DF000006844F20001C4F20101884212D0FFE7CA
:104E0000039800684EF20001C4F20001884209D004
:104E1000FFE7039800684EF20041C4F200018842A7
:104E20000ED1FFE7009820F0800000900298816882
:104E30000098084300900098039909688860FFE78C
:104E40000399012081F83D00FFE70399002081F8D4
:104E50003C00FFE700208DF81300FFE79DF81300EA
:104E600005B070470000000080B582B00090009847
:104E700020B9FFE701208DF8070045E0009890F881
:104E80003D0040B9FFE70099002081F83C00009800
:104E900000F03EF8FFE70099022081F83D000099FC
:104EA00051F8040B01F0F0F90099012081F8480055
:104EB000FFE70099012081F83E00009981F83F004A
:104EC000009981F84000009981F84100009981F82B
:104ED0004200009981F84300FFE7FFE700990120B5
:104EE00081F84400009981F84500009981F8460056
:104EF000009981F84700FFE70099012081F83D0003
:104F000000208DF80700FFE79DF8070002B080BD84
:104F100082B001900198006841F20001C4F20001E2
:104F2000884210D1FFE7FFE744F2E840C5F60200EF
:104F3000016841F010010160006800F0100000906D
:104F40000098FFE7FFE702B0704700000000000094
:104F500083B00190019890F83D00012804D0FFE74C
:104F600001208DF80B0083E00199022081F83D00BB
:104F700001980168C86840F00100C86001980068A5
:104F80000021C4F2010188424ED0FFE70198006879
:104F9000B0F1804F48D0FFE70198006840F200412F
:104FA000C4F2000188423FD0FFE70198006840F654
:104FB0000001C4F20001884236D0FFE70198006882
:104FC00040F60041C4F2000188422DD0FFE701986D
:104FD000006840F20041C4F20101884224D0FFE79A
:104FE0000198006841F60001C4F2000188421BD01C
:104FF000FFE70198006844F20001C4F20101884211
:1050000012D0FFE7019800684EF20001C4F20001DF
:10501000884209D0FFE7019800684EF20041C4F2CF
:105020000001884219D1FFE70198006880680721D4
:10503000C0F2010108400090009806280CD0FFE75C
:105040000098B0F5803F07D0FFE701980168086835
:1050500040F001000860FFE706E001980168086879
:1050600040F001000860FFE700208DF80B00FFE72B
:105070009DF80B0003B0704781B0009001B07047FD
:1050800080B584B0039003980068C06802900398CC
:105090000068006901909DF804008007002824D56D
:1050A000FFE79DF80800800700281DD5FFE703985B
:1050B00001686FF0020008610399012008770398E6
:1050C00000688069800720B1FFE70398FFF7D4FFED
:1050D00006E0039800F0FCF8039800F0FDF8FFE705
:1050E000039900200877FFE7FFE79DF804004007D9
:1050F000002825D5FFE79DF80800400700281ED5A9
:10510000FFE7039801686FF004000861039902202B
:10511000087703980068806910F4407F04D0FFE7A7
:105120000398FFF7A9FF06E0039800F0D1F8039871
:1051300000F0D2F8FFE7039900200877FFE7FFE7C8
:105140009DF804000007002824D5FFE79DF808001B
:10515000000700281DD5FFE7039801686FF00800DD
:10516000086103990420087703980068C0698007E4
:1051700020B1FFE70398FFF77FFF06E0039800F0F8
:10518000A7F8039800F0A8F8FFE703990020087734
:10519000FFE7FFE79DF80400C006002825D5FFE7DC
:1051A0009DF80800C00600281ED5FFE70398016897
:1051B0006FF01000086103990820087703980068D1
:1051C000C06910F4407F04D0FFE70398FFF754FF55
:1051D00006E0039800F07CF8039800F07DF8FFE704
:1051E000039900200877FFE7FFE79DF80400C00758
:1051F00078B1FFE79DF80800C00748B1FFE70398C2
:1052000001686FF001000861039800F069F8FFE79A
:10521000FFE7019800F08000802806D0FFE79DF8A6
:1052200005008006002810D5FFE79DF8080000065D
:10523000002809D5FFE7039801686FF40250086160
:105240000398FFF749FDFFE7FFE79DF80500C0075A
:1052500080B1FFE79DF808000006002809D5FFE7A8
:10526000039801686FF4807008610398FFF730FDC0
:10527000FFE7FFE79DF804004006002810D5FFE790
:105280009DF808004006002809D5FFE7039801684B
:105290006FF040000861039800F036F8FFE7FFE781
:1052A0009DF804008006002810D5FFE79DF808004F
:1052B0008006002809D5FFE7039801686FF02000F9
:1052C00008610398FFF70CFDFFE7FFE704B080BD1E
:1052D00081B0009001B0704781B0009001B070477C
:1052E00080B582B00190019800684EF20001C4F2CE
:1052F0000001884203D1FFE7FCF776F8FFE702B030
:1053000080BD00000000000081B0009001B0704737
:10531000FFE7FEE70000000083B0029001918DF8E6
:10532000032000208DF802008DF80200FFE79DF8B1
:1053300002009DF80310884229DAFFE70298000F67
:10534000092809D8FFE70298000F303001999DF82D
:10535000022001F8120009E00299372000EB1170D9
:1053600001999DF8022001F81200FFE70298000160
:10537000029001989DF8021000EB41010020487056
:10538000FFE79DF8020001308DF80200CFE703B07F
:10539000704700000000000080B582B041F6740044
:1053A000C2F2004000904AF20001C4F20001016024
:1053B000002201928260C2600121017442748274F1
:1053C0004FF0030EC0F814E00A2383614FF01D0C68
:1053D000C0F81CC00362C0F824E08362C0F82CC08F
:1053E000036342638163C263102101640421416449
:1053F0008264C164026541658265C26508230366F3
:1054000042668166FBF71CFB18B1FFE7FBF744F926
:10541000FFE702B080BD000080B582B041F61410F5
:10542000C2F2004000904AF20041C4F20001016063
:10543000002201928260C260012101744274827470
:105440004FF0030EC0F814E00A2383614FF01D0CE7
:10545000C0F81CC00362C0F824E08362C0F82CC00E
:10546000036340F2553343638163C26310210164D7
:10547000042141648264C164026541658265C2653C
:105480000823036642668166FBF7DAFA18B1FFE784
:10549000FBF702F9FFE702B080BD0000000000004A
:1054A00080B582B041F6B410C2F2004000904DF2D7
:1054B0000041C4F200010160002201928260C260DA
:1054C00001210174427482744FF0030EC0F814E09D
:1054D0000A2383614FF01D0CC0F81CC00362C0F8A2
:1054E00024E08362C0F82CC0036340F2AA634363E4
:1054F0008163C26310210164042141648264C16438
:10550000026541658265C26508230366426681665D
:10551000FBF796FA18B1FFE7FBF7BEF8FFE702B01A
:1055200080BD00000000000080B546F20100C0F61A
:1055300000004CF63052C0F60002002104F0C4FD19
:1055400041F29451C2F20041086080BD00000000A9
:1055500080B58EB000200D900C900B900A900990B1
:10556000FFE744F2E040C5F60200016841F00401A3
:105570000160006800F0040008900898FFE7FFE76A
:1055800044F2E040C5F60200016841F0800101608C
:10559000006800F0800007900798FFE7FFE744F2FB
:1055A000E040C5F60200016841F0020101600068B8
:1055B00000F0020006900698FFE7FFE744F2E040A3
:1055C000C5F60200016841F008010160006800F0C2
:1055D000080005900598FFE7FFE744F2E040C5F6B4
:1055E0000200016841F001010160006800F0010063
:1055F00004900498FFE740F60000C5F6020003900F
:105600004FF40041019100220292FBF7CDFE019A76
:1056100002990398099201220A920B910C9109A90F
:10562000FBF7DAFC0EB080BD80B584B00021039199
:105630000291019141F68470C2F2004041F20002F1
:10564000C4F200020260416081604FF6FF72C260E6
:105650008161FFF709FC18B1FFE7FBF71DF8FFE7D1
:1056600000200190039041F68470C2F2004001A92D
:10567000FFF73AFB18B1FFE7FBF70EF8FFE704B0BE
:1056800080BD00000000000080B541F29850C2F2D9
:10569000004040F20401C2F20041012202F014F87D
:1056A00018B1FFE7FAF7F8FFFFE741F29850C2F2AE
:1056B000004040F22C01C2F2004102F031FD18B16D
:1056C000FFE7FAF7E9FFFFE741F29850C2F2004026
:1056D00040F2C801C2F2004101F026FA18B1FFE71A
:1056E000FAF7DAFFFFE741F29850C2F2004002F009
:1056F000A7FE18B1FFE7FAF7CFFFFFE7FDF77CF948
:1057000080BD000000000000FFE7FEE70000000091
:10571000FFE7FEE70000000088B0079006910592C1
:10572000079800F0070004900498C0F107000528CE
:1057300003D3FFE70420019004E00498C0F10700C0
:105740000190FFE70198039004980430062803D8DD
:10575000FFE70020009003E0049803380090FFE783
:105760000098029006980399012202FA01F101398A
:105770000840029B984005999A40013A114008431D
:1057800008B070470000000080B541F65420C2F216
:105790000040FCF739FA80BD80B586B005900491D1
:1057A000059800680390039802900398006C01909C
:1057B0000298049900EB4110D0F8080B0090019872
:1057C00043F20B01C4F6547188420FD3FFE79DF8F2
:1057D00001000006002809D5FFE70298049900EBB4
:1057E00041114FF40040C1F8080BFFE70598FDF7A1
:1057F00043F8019843F20B01C4F6547188420DD36B
:10580000FFE705988079012808D1FFE70599086826
:1058100001F29C42012103F03FFCFFE7002006B0AB
:1058200080BD00000000000080B588B007900691A0
:10583000079800680490049803900498006C029004
:105840000398069900EB4110D0F8080B01900798D7
:105850008079012840F08180FFE79DF8040000076F
:10586000002818D5FFE7029843F20B01C4F65471E3
:1058700088420FD3FFE79DF805000006002809D5F0
:10588000FFE70398069900EB41114FF40040C1F87F
:10589000080BFFE760E09DF804008006002808D5AB
:1058A000FFE70398069900EB41112020C1F8080B8F
:1058B00051E09DF8040010F0280F4AD1FFE702984C
:1058C00043F20B01C4F6547188420FD3FFE79DF8F1
:1058D00005000006002809D5FFE70398069900EBAC
:1058E00041114FF40040C1F8080B31E007980699C8
:1058F00001EBC10100EB810000F5157005900598E2
:10590000006A0399069A01EB4211D1F8101B6FF35C
:10591000DF41401A05994861069898B9FFE7059854
:10592000006940B9FFE70799086801F29C4201212C
:1059300003F0B2FB05E00599C8684A691044C860E5
:10594000FFE7FFE707989DF81810FBF7E9FEFFE770
:1059500000E0FFE7FFE7FFE747E0029843F20A11A4
:10596000C4F65471884224D1FFE79DF80500000673
:10597000002809D5FFE70398069900EB41114FF481
:105980000040C1F8080B13E09DF8040080060028D1
:1059900008D5FFE70398069900EB41112020C1F8D4
:1059A000080BFFE707989DF81810FBF7B9FEFFE713
:1059B0001AE0069890B9FFE70798069901EBC10134
:1059C00000EB8100D0F8640240B9FFE7079908684E
:1059D00001F29C42002103F05FFBFFE707989DF86E
:1059E0001810FBF79DFEFFE7FFE7002008B080BD21
:1059F00080B58CB00A9009910A98006808900898C0
:105A000007900A98099901EBC10100EB810014305D
:105A10000690069801694069884204D9FFE7012091
:105A20008DF82F0079E0069908694969401A0590B8
:105A3000059806998968884204D9FFE70698806826
:105A40000590FFE70598033080080490FFE707986A
:105A5000099900EB4110D0F8180981B2049A00208E
:105A6000914202900FD3FFE7069802694169002036
:105A70009142029007D2FFE706980069002818BFFC
:105A800001200290FFE70298C00770B3FFE7069974
:105A900008694969401A05900598069989688842FD
:105AA00004D9FFE7069880680590FFE70598033062
:105AB0008008049008980699C9689DF82420BDF8CC
:105AC0001430DDF828C09CF806C0EE46CEF800C0C1
:105AD00004F06EF9059A0699C8681044C860059AE2
