:020000040800F2
:1000000008390324E9020008B1F6000819ED0008D8
:10001000A9F60008611B0008F14A01080000000071
:10002000000000000000000000000000D1000108F6
:10003000B926000800000000D1FA000841010108BB
:100040000703000807030008070300080703000868
:100050000703000807030008070300080703000858
:10006000070300080703000807030008691B0008CE
:10007000791B0008891B0008991B0008A91B0008B0
:10008000B91B0008C91B0008070300081127000856
:10009000312700082127000841270008070300082E
:1000A0000703000807030008070300080703000808
:1000B00007030008070300080703000807030008F8
:1000C00007030008070300080703000807030008E8
:1000D000D9FE0008F9260108092701081927010897
:1000E000C1260008070300080000000007030008FD
:1000F000070300080703000807030008D91B0008CE
:1001000007030008070300080703000807030008A7
:10011000070300087105010807030008070300082A
:10012000E91B0008F91B0008091C0008191C00083D
:10013000291C00080703000807030008070300083C
:1001400000000000000000000000000000000000AF
:100150000703000807030008070300080703000857
:100160000703000807030008070300080703000847
:100170000703000829F70008070300080000000033
:1001800007030008070300088105010807030008AA
:100190000703000807030008070300080703000817
:1001A0000703000807030008070300080000000019
:1001B00007030008070300080703000807030008F7
:1001C000070300080703000800000000000000000B
:1001D000000000000000000007030008000000000D
:1001E000000000000000000000000000000000000F
:1001F00000000000000000000703000807030008DB
:1002000007030008070300080000000007030008B8
:100210000703000807030008070300080703000896
:1002200007030008000000000703000800000000AA
:100230000703000807030008000000000703000888
:100240000703000807030008070300080703000866
:100250000703000807030008070300080703000856
:100260000703000807030008070300080703000846
:100270000703000807030008070300080000000048
:100280000703000807030008070300080703000826
:10029000000000000703000807030008000000003A
:1002A0000000000007030008070300080703000818
:1002B000E926010807030008070300085127000882
:1002C000612700089903010807030008DFF814D02C
:1002D00000F0DEF800F07AF800480047D923020861
:1002E00000F008F908390324074880470748804789
:1002F00007480047FEE7FEE7FEE7FEE7FEE7FEE70A
:10030000FEE7FEE7FEE7FEE7E92600083102010806
:10031000CD0200082DE9F05F0546002092469B467D
:1003200088460646814640241BE02846414647460B
:10033000224600F073F853465A46C01A914110D332
:1003400011461846224600F05AF82D1A67EB0108AC
:100350004F4622460120002100F051F817EB00091A
:100360004E41201EA4F10104DFDC484631462A46F6
:100370004346BDE8F09F40EA01039B0703D009E034
:1003800008C9121F08C0042AFAD203E011F8013B81
:1003900000F8013B521EF9D27047D2B201E000F8DA
:1003A000012B491EFBD270470022F6E710B5134619
:1003B0000A4604461946FFF7F0FF204610BD421CCE
:1003C00010F8011B0029FBD1801A70477CB5074843
:1003D0000090074801900546009C04E02046016813
:1003E00008448047241DAC42F8D17CBD2483020818
:1003F0003C8302080B460146184600F031B8202A1B
:1004000004DB203A00FA02F1002070479140C2F16B
:10041000200320FA03F3194390407047202A04DB9D
:10042000203A21FA02F00021704721FA02F3D0406D
:10043000C2F12002914008431946704710B50446A6
:10044000481E014201D1042901D2052010BD1046E9
:1004500026F0C6F810B12060002010BD062010BDA7
:100460002DE9F041074615460E46102026F068FD9E
:1004700004000AD06760C4E9026500F037F801683B
:10048000216004600020BDE8F0810120FBE700004E
:100490001CB509480090094801900546009C06E0FB
:1004A000E06840F0010394E8070098471034AC423C
:1004B000F6D3FFF70FFF0000F4820208248302083E
:1004C00030B50B46014600202022012409E021FA24
:1004D00002F59D4205D303FA02F5491B04FA02F521
:1004E0002844151EA2F10102F1DC30BD004870471E
:1004F000100000242DE9F0410646FFF7F7FF804683
:10050000454613E016B1E068B0420ED1206828607D
:10051000D4E90101D8F800708847204626F0B0F8E9
:10052000D8F80000B842EBD100E025462C68002C3A
:10053000E8D1BDE8F0812DE9FE4F804681EA030055
:10054000C00F0C46009021F0004123F00045B8EBAD
:100550000200A94105D24046214690461C460B4662
:10056000024623F00040104347D0270DC7F30A008E
:10057000C3F30A510290401A019040286BDAC3F38A
:10058000130040F4801B0098924620B10023D2EB68
:10059000030A63EB0B0B01985946C0F14002504629
:1005A000FFF72DFF06460D4650465946019A00F0CA
:1005B0007BF910EB08006141002487EA115284EABC
:1005C000E7731A4340D0009A62B3019A012A4FEAB6
:1005D000075215DC001B61EB02014FF0004202EAFA
:1005E0000752CDE90042001C41F5801132462B46EE
:1005F00000F07CF903B0BDE8F08F40462146F9E7F2
:10060000001B61EB0201001C41F5801300185B41E7
:100610002018A2F5001747EB030140EAD570B61980
:100620006D4111E06D084FEA360645EAC0754FEAA4
:100630000752001B61EB0201001C41F580114908C3
:100640004FEA30000019514132462B4603B0BDE855
:10065000F04F00F03CB90098012240000023D0EB9D
:10066000020263EBE073009821464FEAE074B8EBB6
:10067000000061EB0401E9E783F000435BE781F0F0
:10068000004158E72DE9FE4F81EA030404F00044DD
:1006900021F0004100944FF0000B23F0004350EA9A
:1006A00001045ED052EA03045BD0C3F30A54C1F3E1
:1006B0000A552C44A4F2F3340194A0FB0254C1F374
:1006C000130141F48011C3F3130343F4801301FBBE
:1006D000024400FB034E840A970A44EA815447EA25
:1006E0008357A4FB076802958D0A05FB07854FEA2F
:1006F000932C04FB0C542705029D4FEA065847EA49
:100700001637B5EB08056EEB070C870E920E47EA1D
:10071000811742EA8312A7FB0201B6EB0B0164EBDF
:1007200000042B0D43EA0C335E1844EB1C50DA46F0
:100730005146E7FB0201C5F313044FEA0B3343EACA
:1007400014534FEA0432019C43EA0603A4F10C045B
:100750000294009CCDE900B400F0C8F803B0BDE8F5
:10076000F08F00200146F9E72DE9F04D81EA0304FE
:1007700004F0004B21F0004514464FF0000A23F02E
:10078000004150EA050220D054EA01021DD0C5F311
:100790000A570246C5F31303C1F31300C1F30A5607
:1007A00040F4801543F48013A7EB0608101BD646CF
:1007B00008F2FD3873EB050002D308F1010801E0EF
:1007C00092185B41B8F1000F03DA00200146BDE842
:1007D000F08D00204FF48011064684460EE0171B72
:1007E00073EB050705D3121B63EB050306434CEAC5
:1007F000010C49084FEA300092185B4150EA0107AA
:10080000EDD152EA030012D082EA040083EA050126
:10081000084305D0101BAB4106D20122002306E09D
:1008200000224FF0004302E06FF0010253101AEB78
:1008300006004CEB085110EB0A0041EB0B01BDE840
:10084000F04D00F044B8C1F30A52C1F3130140F275
:10085000FF3341F480119A4202DA002001467047CA
:1008600040F233439A42A2F2334202DC5242FFF793
:10087000D5BDFFF7C4BD000030B5041E71F1000402
:1008800004DB4FF00044404264EB0101141E73F19D
:10089000000405DB1C464FF00043524263EB0403A7
:1008A000994208BF904230BD202A06DBCB17203A80
:1008B00041FA02F043EAE07306E041FA02F3D04065
:1008C000C2F120029140084319467047704710B5A5
:1008D000141E73F1000408DA401C41F10001921863
:1008E0005B411A4301D120F0010010BD2DE9F04D0C
:1008F00092469B4611B1B1FA81F202E0B0FA80F261
:1009000020329046FFF77BFD04460F4640EA0A007E
:1009100041EA0B0153465A46084313D0114653EAA5
:10092000010019D0C8F140025046FFF777FD054697
:100930000E46504659464246FFF761FD084305D032
:10094000012004E020463946BDE8F08D0020054333
:1009500046EAE0762C4337430A986305E40AA0EBA5
:1009600008000022FD0A44EA47540A3002D500205C
:100970000146E9E7010510196941DDE9084500195B
:100980006941BDE8F04DA2E780B58CB08DF82E002E
:100990000A91ADF826200020089007900690059057
:1009A000BDF82600072804D3FFE701208DF82F00AB
:1009B00050E09DF82E0040F080008DF81C0040F6BD
:1009C0000000C5F6020003900121029100F054FCE2
:1009D00040F22850C2F200400068BDF826100231F3
:1009E0006B4605221A608BB207A905AA0BF07CF9A9
:1009F0000299024603988DF8132000F0ADF89DF897
:100A0000130040F65041C2F2004181F857009DF8B2
:100A10001300D0B9FFE70020ADF81000FFE7BDF8E4
:100A20001000BDF8261088420EDAFFE7BDF810204E
:100A300005A8104480780A998854FFE7BDF8100093
:100A40000130ADF81000EAE7FFE79DF813008DF8DC
:100A50002F00FFE79DF82F000CB080BD00000000C4
:100A600080B584B040F65040C2F20040009000F1E2
:100A700050010020029001220192FFF785FF0099AA
:100A8000019A034602988DF80E30513100F074F847
:100A90008DF80D009DF80E00B0B9FFE79DF80D0030
:100AA00090B9FFE740F65040C2F2004090F8500085
:100AB0001E2809D1FFE740F65040C2F2004090F8EE
:100AC00051000F2804D0FFE701208DF80F0003E04C
:100AD00000208DF80F00FFE79DF80F0004B080BDE7
:100AE00084B08DED020ACDED010A8DED001A9DED69
:100AF000020A9DED011AB4EE410AF1EE10FA03DA92
:100B0000FFE7019803900FE09DED020A9DED001AAA
:100B1000B4EE410AF1EE10FA03DDFFE7009803900E
:100B200002E002980390FFE79DED030A04B07047CE
:100B300080B582B0019021F0BBFC022804D1FFE710
:100B4000019821F099FC03E0019805F0F9F8FFE71E
:100B500002B080BD0000000080B582B00190ADF809
:100B600002100198BDF80210012206F071FD02B0DA
:100B700080BD00000000000080B58CB08DF82E0014
:100B80000A91ADF826200020CDF81F000790CDF87F
:100B900017000590BDF82600072804D3FFE70120C1
:100BA0008DF82F0050E09DF82E0040F080008DF869
:100BB0001C0040F60000C5F60200039008210291D7
:100BC00000F05AFB40F22850C2F200400068BDF825
:100BD000261001316B4605221A608BB207A905AABF
:100BE0000BF082F80299024603988DF81320FFF764
:100BF000B3FF9DF8130040F65041C2F2004181F866
:100C000058009DF81300D0B9FFE70020ADF81000A0
:100C1000FFE7BDF81000BDF8261088420EDAFFE7A6
:100C2000BDF8102005A8104440780A998854FFE7C1
:100C3000BDF810000130ADF81000EAE7FFE79DF8BD
:100C400013008DF82F00FFE79DF82F000CB080BD3A
:100C500080B58EB00C900C9850B9FFE740F650412B
:100C6000C2F20041012081F856008DF83700C0E142
:100C70000C9840F22851C2F20041086040F6504200
:100C8000C2F2004208920020099082F8520001212D
:100C900082F8551082F8561082F8530082F85400FA
:100CA00040F23C53C2F200431870106350639063EB
:100CB0004FF07E53D3631064506490649061D061B0
:100CC000106240F21852C2F20042106040F21C5210
:100CD000C2F2004210605060906040F23052C2F2A6
:100CE000004210605060906040F60000C5F60200BF
:100CF0000A90FFF731FF0A980821FFF72DFFFFF751
:100D0000AFFE8DF82F009DF82F0080B1FFE740F671
:100D10005041C2F20041086E013008669DF82F0074
:100D200081F856009DF82F008DF8370061E140F6FC
:100D30005041C2F20041022081F8550040F6000007
:100D4000C5F6020001217E22B62300F0D5FE58B977
:100D5000FFE740F60000C5F6020008211422B62382
:100D600000F0CAFE68B1FFE740F65041C2F2004110
:100D7000086E01300866012081F856008DF83700B2
:100D800037E13220FFF7D4FE40F65041C2F2004175
:100D90000791032081F85500002006900DF12E01E7
:100DA000049101220592FFF7EFFD0499059A069838
:100DB000FFF7E2FE0799042081F85500FFF750FE87
:100DC00068B1FFE740F65041C2F20041086E0130C1
:100DD0000866012081F856008DF8370009E140F6D9
:100DE0005041C2F20041052081F8550040F6000054
:100DF000C5F6020001217D22042300F07DFE68B1CA
:100E0000FFE740F65041C2F20041086E013008662B
:100E1000012081F856008DF83700EAE001200390A8
:100E2000FFF786FE039940F60000C5F602007C221B
:100E3000002300F061FE68B1FFE740F65041C2F2C6
:100E40000041086E01300866012081F856008DF8D7
:100E50003700CEE001200290FFF76AFE029940F6CB
:100E60000000C5F602004022AB2300F045FE00283A
:100E70005AD1FFE740F60000C5F6020041220123E7
:100E8000194600F039FE00284ED1FFE740F6000079
:100E9000C5F6020001215322082300F02DFE002890
:100EA00042D1FFE740F60000C5F6020001215822BA
:100EB000042300F021FEB8BBFFE740F60000C5F6B2
:100EC000020008210F22012300F016FE60BBFFE79D
:100ED00040F60000C5F6020008211022022300F0AF
:100EE0000BFE08BBFFE740F60000C5F60200082134
:100EF0001522802300F000FEB0B9FFE740F60000A5
:100F0000C5F60200082116220C2300F0F5FD58B9A1
:100F1000FFE740F60000C5F6020008211822012371
:100F200000F0EAFD68B1FFE740F65041C2F200412F
:100F3000086E01300866012081F856008DF83700F0
:100F400057E00A20FFF7F4FD4EF6FC51CEF2000107
:100F5000086840F08070086041F20401CEF20001A0
:100F600001910020086041F20001CEF20001086802
:100F700040F00100086009F0B7F90146019840F21D
:100F80001452C2F200421160006840F22C51C2F2C9
:100F90000041086040F65041C2F20041012081F852
:100FA0005200062081F8550000F0A2F88DF82F00BD
:100FB0009DF82F0080B1FFE740F65041C2F200419A
:100FC000002081F852009DF82F0081F856009DF80E
:100FD0002F008DF837000CE040F65041C2F200417E
:100FE000072081F85500002081F856008DF8370061
:100FF000FFE79DF837000EB080BD00000000000044
:1010000080B58CB08DED0B0ACDED0A0A8DED091A75
:101010009DED0A0ADDED090A25F0F0FB8DED080AC9
:101020009DED0B0AB1EE400A8DED000A9DED0A1A06
:101030009DED090A20EE000AA1EE010A25F0A4FEAA
:10104000F0EE400A9DED000A25F0D8FB8DED070A71
:101050009DED080AB6EE001A20EE010A8DED060A93
:101060009DED070A20EE010A8DED050A9DED060AA9
:1010700025F01AFD8DED040A9DED060A25F0BCFD54
:101080008DED030A9DED050A25F00EFD8DED020A9A
:101090009DED050A25F0B0FD8DED010A9DED040AD8
:1010A0009DED021A20EE010A40F65041C2F20041C5
:1010B00081ED0F0A9DED030A9DED021A20EE010A53
:1010C00081ED100A9DED040A9DED011A20EE010A42
:1010D00081ED110A9DED030A9DED011A20EE410AF2
:1010E00081ED120A012081F853000CB080BD000090
:1010F00080B58AB040F22850C2F200400068C0B10A
:10110000FFE740F65040C2F2004090F8520080B134
:10111000FFE712200DF121010622FFF735FC40B94F
:10112000FFE702200DF11B010622FFF725FD58B154
:10113000FFE740F65041C2F20041086E01300866F8
:1011400001208DF8270054E000200290FFE702986C
:10115000022841D8FFE702990DF1210000EB410080
:1011600000F09AF8029A05A9019121F8120002995B
:101170000DF11B0000EB410000F08EF801460198D4
:10118000029B0DF10E0222F81310029930F91100A2
:1011900000EE100AB8EEC00A9FED181A20EE010A00
:1011A00040F65040C2F2004000EB810181ED000AA0
:1011B000029932F9112000EE102AB8EEC00A9FED14
:1011C000101A20EE010A00EB810080ED030AFFE710
:1011D000029801300290BAE700F06AF840F65041F8
:1011E000C2F20041C86D0130C86500208DF82700AB
:1011F000FFE79DF827000AB080BD00BF0F5CEB3A07
:101200000000FA3C0000000082B00190ADF802102E
:101210008DF80120019840F60001C5F602018842D0
:101220000ED1FFE7BDF80200012809D1FFE79DF8C4
:10123000010040F65041C2F2004181F8570016E02B
:10124000019840F60001C5F6020188420ED1FFE781
:10125000BDF80200082809D1FFE79DF8010040F61B
:101260005041C2F2004181F85800FFE7FFE702B0A9
:10127000704700000000000080B582B00190ADF81A
:1012800002100198BDF80210002206F0E1F902B048
:1012900080BD00000000000081B000900099087837
:1012A000497840EA012000B201B070470000000018
:1012B00080B5B2B040F65040C2F2004001683191B2
:1012C0004168309180682F9041F20400CEF2000016
:1012D00000682E902E9840F22C51C2F200410A680C
:1012E000801A2D902E98086040F21450C2F20040EF
:1012F000006828B9FFE79FEDDC0A8DED0B0A10E0CE
:101300009DED2D0AB8EE400A40F21450C2F20040A2
:1013100090ED001AB8EE411A80EE010A8DED0B0A2D
:10132000FFE79DED0B0A8DED290A9DED290AB5EE2B
:10133000400AF1EE10FA0ADDFFE79DED290A9FED64
:10134000CB1AB4EE410AF1EE10FA06DDFFE741F2E6
:101350006F20C3F683202990FFE79DED311A9DEDA4
:10136000300A20EE000AA1EE010A9DED2F1AA1EE2F
:10137000010A25F009FD40F65040C2F2004080ED20
:10138000130A90ED130A9FEDBA1AB4EE410AF1EE7A
:1013900010FA40F30581FFE740F65040C2F20040EA
:1013A00090ED130A9FEDB31AB4EE410AF1EE10FA74
:1013B00080F2F680FFE740F65040C2F2004090F81D
:1013C0005400002840F0EC80FFE740F65040C2F2A5
:1013D000004090ED030AB5EE400AF1EE10FA0BDA88
:1013E000FFE740F65040C2F2004090ED030AB1EE34
:1013F000400A8DED0A0A08E040F65040C2F2004073
:1014000090ED030A8DED0A0AFFE79DED0A0A8DEDC6
:10141000090A40F65040C2F2004090ED040AB5EED1
:10142000400AF1EE10FA0BDAFFE740F65040C2F244
:10143000004090ED040AB1EE400A8DED080A08E084
:1014400040F65040C2F2004090ED040A8DED080ACB
:10145000FFE79DED090A9DED081A30EE010A8DEDBA
:10146000070A40F65040C2F2004090ED050AB5EE82
:10147000400AF1EE10FA0BDAFFE740F65040C2F2F4
:10148000004090ED050AB1EE400A8DED060A08E035
:1014900040F65040C2F2004090ED050A8DED060A7C
:1014A000FFE79DED070A9DED061A30EE010A8DED6E
:1014B000280A9DED280AB1EE041AB4EE410AF1EEB5
:1014C00010FA5EDAFFE700202790FFE7279802284E
:1014D0001BD8FFE7279940F65040C2F2004000EBCE
:1014E000810090ED031A279940F21C50C2F200408F
:1014F00000EB810090ED000A30EE010A80ED000A59
:10150000FFE7279801302790E0E740F21850C2F239
:1015100000400168013101600068B0F5FA7F2FD307
:10152000FFE700202690FFE72698022820D8FFE753
:10153000269940F21C50C2F2004000EB810090ED71
:10154000000A40F21850C2F2004090ED001AB8EEC6
:10155000411A80EE010A40F65040C2F2004000EB12
:10156000810080ED090AFFE7269801302690DBE72D
:1015700040F65041C2F20041012081F85400FFE7DB
:101580000DE040F21851C2F200410020086040F224
:101590001C51C2F20041086048608860FFE7FFE725
:1015A00000202590FFE72598022869D8FFE72599B4
:1015B00040F65040C2F2004000EB810191ED030A79
:1015C000259900EB810090ED091A30EE410A25992A
:1015D0002AA800EB810080ED000A40F23C50C2F2E4
:1015E0000040007880B3FFE725992AA800EB81002E
:1015F00090ED000A40F23050C2F2004000EB810052
:1016000090ED001A30EE410A9DED291A80EE010A94
:101610008DED240A9DED241A259940F65040C2F222
:101620000040183000EB810191ED000A9FED122A75
:1016300020EE020A9FED112AA1EE020A259900EB85
:10164000810080ED000AFFE7259A2AA850F82200C1
:1016500040F23051C2F2004141F82200FFE72598E4
:10166000013025909FE700BF6F12833A0AD7A33C51
:10167000D65E05413E713441CDCC4C3FCDCC4C3E85
:1016800040F23C51C2F200410120087040F6504047
:10169000C2F2004090ED130A1FED0B1AB4EE410A9E
:1016A000F1EE10FA40F3C380FFE740F65040C2F27B
:1016B000004090ED130A1FED111AB4EE410AF1EE4D
:1016C00010FA80F2B480FFE740F65040C2F20040CA
:1016D00090F8530048B9FFE79DED310ADDED300A7F
:1016E0009DED2F1AFFF78CFCFFE740F65040C2F249
:1016F000004090F85300002800F09880FFE740F683
:101700005040C2F2004090ED131AB7EE000A80EE8E
:10171000010A8DED230A9DED310A9DED231A20EE7D
:10172000010A8DED220A9DED300A9DED231A20EE6F
:10173000010A8DED210A9DED2F0A9DED231A20EE61
:10174000010A8DED200AC16B1F91016C1E91416C45
:101750001D91806C1C909DED1E1A9DED1C2A9DED27
:101760001F0A9DED1D3A20EE030A91EE020A30EEAB
:10177000000A8DED1B0A9DED1F1A9DED1E2A9DEDA1
:101780001D0A9DED1C3A20EE030AA1EE020A30EE7E
:10179000000A8DED1A0A9DED1F1A9DED1E0A20EE1E
:1017A000000A91EE010A9DED1D1AA1EE410A9DED80
:1017B0001C1AA1EE010A8DED190A9DED210A9DED7D
:1017C000192A9DED201A9DED1A3A21EE031A90EE8A
:1017D000021A9DED2A0A9FEDC52AA1EE020A8DED9F
:1017E0002A0A9DED200A9DED1B3A9DED221A9DEDE2
:1017F000194A21EE041A90EE031A9DED2B0AA1EE70
:10180000020A8DED2B0A9DED220A9DED1A3A9DEDFF
:10181000211A9DED1B4A21EE041A90EE031A9DED4C
:101820002C0AA1EE020A8DED2C0AFFE7FFE740F635
:101830005040C2F2004090F85300002800F053815D
:10184000FFE740F65040C2F200400590C16B18918E
:10185000016C1791416C1691816C15919DED2A0ACE
:101860009FEDA31A20EE010A8DED140A9DED2B0ABF
:1018700020EE010A8DED130A9DED2C0A20EE010ADF
:101880008DED120A9DED171A9DED142A9DED160A95
:101890009DED133A20EE030AA1EE020A9DED151A02
:1018A0009DED122AA1EE020AB6EE001A20EE412AA0
:1018B0009DED293A90ED0F0AA2EE030A80ED0F0A82
:1018C0009DED182A9DED143A9DED160A9DED124AE4
:1018D00020EE040AA2EE030A9DED152A9DED133AAF
:1018E000A2EE430A20EE012A9DED293A90ED100A5E
:1018F000A2EE030A80ED100A9DED182A9DED133A21
:101900009DED170A9DED124A20EE040A92EE030A9D
:101910009DED152A9DED143AA2EE030A20EE012A50
:101920009DED293A90ED110AA2EE030A80ED110A0D
:101930009DED182A9DED123A9DED170A9DED134A73
:1019400020EE040AA2EE030A9DED162A9DED143A3C
:10195000A2EE430A20EE011A9DED292A90ED120A0B
:10196000A1EE020A80ED120A90ED0F1A90ED0F2AF7
:1019700090ED100A90ED103A20EE030AA1EE020A53
:1019800090ED111A90ED112AA1EE020A90ED121AB3
:1019900090ED122AA1EE020A25F0F6F98DED110A5A
:1019A0009DED110AB5EE400AF1EE10FA40F39A806F
:1019B000FFE79DED110AF7EE000ACDED010A80EE7A
:1019C000800A8DED100A40F65041C2F200410491A8
:1019D00091ED0F0A9DED101A20EE010A8DED0F0A10
:1019E00091ED100A9DED101A20EE010A8DED0E0A00
:1019F00091ED110A9DED101A20EE010A8DED0D0AF0
:101A000091ED120A9DED101A20EE010A8DED0C0ADF
:101A10000F98C8630E9808640D9848640C98886401
:101A20009DED0F3A9DED0E2A9DED0D1A9DED0C0AD0
:101A300021EE000AA3EE020A30EE000A21EE011A9E
:101A4000A2EE021AB8EE002A8DED022AE1EE020A99
:101A500024F0D4FE9DED011A04989FED242A8DED0B
:101A6000032A20EE020A80ED0C0A9DED0F2A9DED5F
:101A70000D3A9DED0C0A9DED0E4A20EE040A92EE01
:101A8000030A30EE000AFFEE000AFFF729F824F0FF
:101A90001FFEDDED010A9DED022A9DED031A04985B
:101AA00020EE010A80ED0D0A9DED0F4A9DED0C1A06
:101AB0009DED0E0A9DED0D3A20EE030AA4EE010AFB
:101AC00030EE000A21EE011AA3EE031AE1EE020A3B
:101AD00024F094FE9DED031A049820EE010A80ED97
:101AE0000E0AFFE7FFE732B080BD00BFE12E65427E
:101AF00035FA8E3C0000000080B584B00390ADF84C
:101B00000A108DF809208DF808309DF809008DF82D
:101B100006009DF808008DF807000398BDF80A102C
:101B2000FFF7AAFB40F22850C2F2004000680DF116
:101B300006010222052309F0E3FE8DF80500039853
:101B4000BDF80A10FFF708F80398BDF80A109DF8D1
:101B50000520FFF759FB9DF8050004B080BD00008B
:101B6000FFE7FEE70000000080B540F60C60C2F21F
:101B7000004001F0D1FF80BD80B540F68460C2F224
:101B8000004001F0C9FF80BD80B540F6FC60C2F2A4
:101B9000004001F0C1FF80BD80B541F26400C2F297
:101BA000004001F0B9FF80BD80B541F2DC00C2F217
:101BB000004001F0B1FF80BD80B540F67470C2F204
:101BC000004001F0A9FF80BD80B540F6EC70C2F284
:101BD000004001F0A1FF80BD80B541F25410C2F277
:101BE000004001F099FF80BD80B541F2CC10C2F2F7
:101BF000004001F091FF80BD80B541F24420C2F267
:101C0000004001F089FF80BD80B541F2BC20C2F2E6
:101C1000004001F081FF80BD80B540F61C50C2F24B
:101C2000004001F079FF80BD80B540F69450C2F2CB
:101C3000004001F071FF80BD83B0029002980168FE
:101C400001201022C4F202029142009000F0A38011
:101C5000FFE70298016801202822C4F202029142A3
:101C6000009000F09880FFE7029801680120402270
:101C7000C4F202029142009000F08D80FFE70298CA
:101C8000016801205822C4F202029142009000F043
:101C90008280FFE70298016801207022C4F20202EC
:101CA0009142009077D0FFE70298016801208822D6
:101CB000C4F20202914200906DD0FFE702980168E1
:101CC0000120A022C4F202029142009063D0FFE7FB
:101CD000029801680120B822C4F2020291420090E9
:101CE00059D0FFE702980168012040F21042C4F287
:101CF0000202914200904ED0FFE702980168012055
:101D000040F22842C4F202029142009043D0FFE721
:101D100002980168012040F24042C4F2020291425E
:101D2000009038D0FFE702980168012040F2584245
:101D3000C4F20202914200902DD0FFE702980168A0
:101D4000012040F27042C4F202029142009022D07F
:101D5000FFE702980168012040F28842C4F20202C3
:101D60009142009017D0FFE702980168012040F2ED
:101D7000A042C4F20202914200900CD0FFE7029808
:101D800000684FF64831CBF6FD710844B0FA80F098
:101D900040090090FFE70098C00740B3FFE70298B2
:101DA000007810384AF6AB21CAF6AA21A0FB011030
:101DB00000090190019800F0070147F6AC20C0F639
:101DC0000200405C0299C8650198042807D3FFE728
:101DD00002990868042262F30900886506E0029906
:101DE000086840F2FF3290438865FFE705E00299FA
:101DF000086820F0FF008865FFE70298806D03B057
:101E0000704700000000000084B003900398006851
:101E1000019003980168012045F20842C5F60202CC
:101E2000914200904ED0FFE703980168012045F2EF
:101E30001C42C5F602029142009043D0FFE703988E
:101E40000168012045F23042C5F60202914200903D
:101E500038D0FFE703980168012045F24442C5F6F7
:101E60000202914200902DD0FFE703980168012003
:101E700045F25842C5F602029142009022D0FFE797
:101E800003980168012045F26C42C5F602029142B6
:101E9000009017D0FFE703980168012045F28042C7
:101EA000C5F60202914200900CD0FFE7039800684B
:101EB0004AF66C31CAF2FD710844B0FA80F040096C
:101EC0000090FFE70098C00710B3FFE70398007881
:101ED00008384CF6CD41CCF6CC41A0FB01100009EE
:101EE0000290029945F60000C5F6020000EB810061
:101EF00003990866039945F68000C5F60200486616
:101F0000029800F01F01012088400399886635E09F
:101F10000398007810384AF6AB21CAF6AA21A0FB34
:101F2000011000090290019840F2B841C4F2020188
:101F300088420CD8FFE7019840F21041C4F2020138
:101F4000884204D3FFE7029808300290FFE7029925
:101F500040F60000C4F2020000EB8100039908661D
:101F6000039940F68000C4F202004866029800F02F
:101F70001F010120884003998866FFE704B070477D
:101F800083B002900298007901900198002800F037
:101F90008A80FFE70198082800F28580FFE7029811
:101FA0000168012045F20842C5F602029142009004
:101FB0004ED0FFE702980168012045F21C42C5F6A9
:101FC00002029142009043D0FFE70298016801208D
:101FD00045F23042C5F602029142009038D0FFE748
:101FE00002980168012045F24442C5F6020291427E
:101FF00000902DD0FFE702980168012045F2584279
:10200000C5F602029142009022D0FFE702980168D3
:10201000012045F26C42C5F602029142009017D0B1
:10202000FFE702980168012045F28042C5F60202EE
:10203000914200900CD0FFE7029800684AF66C319C
:10204000CAF2FD710844B0FA80F040090090FFE741
:102050000098C00780B1FFE7019945F6FC00C5F67E
:10206000020000EB81000299C866029945F6401013
:10207000C5F6020008670FE0019940F6FC00C4F2C3
:10208000020000EB81000299C866029940F64010F8
:10209000C4F202000867FFE70198411E0120884052
:1020A00002994867FFE703B0704700000000000096
:1020B00085B0049000208DF80F000498806918BB4B
:1020C000FFE70498806A029003281BD80299DFE892
:1020D00001F0020D0218049890F82F00C00720B1FB
:1020E000FFE701208DF80F00FFE70CE00498C06ABD
:1020F000B0F1C07F04D1FFE701208DF80F00FFE7AA
:1021000001E000E0FFE747E004988069B0F5005F78
:1021100026D1FFE70498806A019003281ED8019910
:10212000DFE801F00206021101208DF80F0016E031
:10213000049890F82F00C00720B1FFE701208DF828
:102140000F00FFE70BE00498C06AB0F1C07F04D134
:10215000FFE701208DF80F00FFE700E0FFE71AE03E
:102160000498806A0090032804D3FFE700980328AE
:1021700004D00EE001208DF80F000BE0049890F8D9
:102180002F00C00720B1FFE701208DF80F00FFE707
:1021900000E0FFE7FFE7FFE79DF80F0005B070479D
:1021A00089B008900791069205930898806D049075
:1021B0000898806D03900898016801201022C4F2ED
:1021C00002029142029000F00381FFE70898016843
:1021D00001202822C4F202029142029000F0F8800D
:1021E000FFE70898016801204022C4F202029142F0
:1021F000029000F0ED80FFE7089801680120582266
:10220000C4F202029142029000F0E280FFE70898D7
:10221000016801207022C4F202029142029000F093
:10222000D780FFE70898016801208822C4F20202E3
:102230009142029000F0CC80FFE7089801680120ED
:10224000A022C4F202029142029000F0C180FFE796
:10225000089801680120B822C4F20202914202905B
:1022600000F0B680FFE708980168012040F21042B4
:10227000C4F202029142029000F0AA80FFE708989F
:102280000168012040F22842C4F202029142029009
:1022900000F09E80FFE708980168012040F240426C
:1022A000C4F202029142029000F09280FFE7089887
:1022B0000168012040F25842C4F2020291420290A9
:1022C00000F08680FFE708980168012040F2704224
:1022D000C4F20202914202907AD0FFE708980168A6
:1022E000012040F28842C4F20202914202906FD073
:1022F000FFE708980168012040F2A042C4F2020200
:102300009142029064D0FFE708980168012040F2F2
:10231000B842C4F202029142029059D0FFE70898F5
:102320000168012045F20842C5F60202914202907E
:102330004ED0FFE708980168012045F21C42C5F61F
:1023400002029142029043D0FFE708980168012001
:1023500045F23042C5F602029142029038D0FFE7C2
:1023600008980168012045F24442C5F602029142F4
:1023700002902DD0FFE708980168012045F25842ED
:10238000C5F602029142029022D0FFE70898016848
:10239000012045F26C42C5F602029142029017D02C
:1023A000FFE708980168012045F28042C5F6020265
:1023B000914202900CD0FFE7089800684AF66C3111
:1023C000CAF2FD710844B0FA80F040090290FFE7BC
:1023D0000298C00770B1FFE70898416E806E4860B0
:1023E0000898C06E28B1FFE70898016F406F4860F9
:1023F000FFE7FFE70898016801201022C4F20202FB
:102400009142019000F0A380FFE708980168012045
:102410002822C4F202029142019000F09880FFE766
:102420000898016801204022C4F202029142019002
:1024300000F08D80FFE70898016801205822C4F25F
:1024400002029142019000F08280FFE70898016843
:1024500001207022C4F202029142019077D0FFE77E
:102460000898016801208822C4F20202914201907A
:102470006DD0FFE7089801680120A022C4F2020293
:102480009142019063D0FFE7089801680120B822CB
:10249000C4F202029142019059D0FFE70898016806
:1024A000012040F21042C4F20202914201904ED04B
:1024B000FFE708980168012040F22842C4F20202B6
:1024C0009142019043D0FFE708980168012040F253
:1024D0004042C4F202029142019038D0FFE70898CE
:1024E0000168012040F25842C4F202029142019078
:1024F0002DD0FFE708980168012040F27042C4F235
:1025000002029142019022D0FFE708980168012061
:1025100040F28842C4F202029142019017D0FFE7D4
:1025200008980168012040F2A042C4F202029142E0
:1025300001900CD0FFE7089800684FF64831CBF6C1
:10254000FD710844B0FA80F040090190FFE701985E
:10255000C00750B3FFE70898C06D00F01F013F208F
:1025600088400499886008980168086820F48020F1
:1025700008600598089909684860089880684028AC
:1025800009D1FFE7069808990968886007980899B3
:102590000968C86008E00798089909688860069883
:1025A00008990968C860FFE782E00898016801207F
:1025B00045F20842C5F60202914200904ED0FFE774
:1025C00008980168012045F21C42C5F602029142BA
:1025D000009043D0FFE708980168012045F230429F
:1025E000C5F602029142009038D0FFE708980168D2
:1025F000012045F24442C5F60202914200902DD0DE
:10260000FFE708980168012045F25842C5F602022A
:102610009142009022D0FFE708980168012045F21E
:102620006C42C5F602029142009017D0FFE708986D
:102630000168012045F28042C5F6020291420090F5
:102640000CD0FFE7089800684AF66C31CAF2FD71B9
:102650000844B0FA80F040090090FFE70098C007F6
:1026600020B3FFE70898C06D00F01F0101208840EB
:102670000399486005980899096848600898806837
:10268000402809D1FFE706980899096888600798EB
:1026900008990968C86008E007980899096888607F
:1026A000069808990968C860FFE700E0FFE7FFE7C0
:1026B00009B07047000000007047000000000000F3
:1026C00080B54FF4806004F0D3FD4FF4805004F0E7
:1026D000CFFD80BD0000000081B0EFF3108072B626
:1026E0000090FFE7FEE7000044F60C01C5F602018A
:1026F000086840F002000860FFE744F60400C5F6F1
:10270000020000688004002801D4FFE7F5E7704765
:1027100080B541F23830C2F2004003F089FE80BD3E
:1027200080B541F23830C2F2004003F081FE80BD36
:1027300080B541F2D830C2F2004003F079FE80BD8E
:1027400080B541F2D830C2F2004003F071FE80BD86
:1027500080B541F27840C2F2004003F069FE80BDCE
:1027600080B541F27840C2F2004003F061FE80BDC6
:1027700084B002900298406B009002980068D0F8F4
:1027800084004FF6FC718843009940EA8100029969
:102790000968C1F8840002980068D0F8840020F429
:1027A0007F00029A1168926B40EA0240C1F88400EF
:1027B0000298816B00980844009002980068D0F855
:1027C00088006FF38F00009940EA81000299096840
:1027D000C1F8880002980068D0F8880020F4FE0054
:1027E000029A1168D26B40EA0240C1F88800029850
:1027F000C16B009800EB4100009002980068D0F88F
:10280000A0006FF38F00009940EA810002990968E7
:10281000C1F8A00002980068D0F8A00020F4FE00E3
:10282000029A1168126C40EA0240C1F8A0000299B5
:10283000086C496C009A00FB012000900298006827
:10284000D0F8B0006FF38F00009940EA8100029940
:102850000968C1F8B00002980068D0F8B00020F410
:10286000FE00029A1168926C40EA0240C1F8B00082
:102870000299886CC96C009A00FB012000900298B4
:102880000068D0F8AC006FF38F00009940EA810037
:1028900002990968C1F8AC000299086D496D009A67
:1028A00000FB0120009002980068D0F8F0006FF360
:1028B0008F00009940EA810002990968C1F8F00090
:1028C00002980068D0F8F00020F47C10029A116899
:1028D000926D40EA0240C1F8F0000298816D0098C4
:1028E00000EB4100009002980068D0F8C0006FF340
:1028F0008F00009940EA810002990968C1F8C00080
:1029000002980068D0F8C00020F47C10029A116888
:10291000D26D40EA0240C1F8C00002980068D0F8C9
:10292000C00020F07C50029A1168126E40EA0260EA
:10293000C1F8C00002994A6B4AF60040C4F2000098
:1029400000EB8200C86602998A6BC86E00EB8200B9
:1029500008670299CA6B086F00EBC20048670299CA
:102960000A6C4B6C486F5A4300EB820088670299EF
:102970008A6CCB6C886F5A4300EB8200C86702995F
:102980000A6D4B6DC86F5A4300EB8200C1F880009E
:1029900002998A6DD1F8800000EBC200C1F8840072
:1029A0000299CA6D8B6ED1F884005A4300EB820005
:1029B000C1F8880002990A6E8B6ED1F888005A43DC
:1029C00000EB8200C1F890000298D0F890004DF220
:1029D000FD31C4F2000188420FD3FFE70299D1F81C
:1029E0009C0040F02000C1F89C000299032081F86F
:1029F000980001208DF80F0017E00298C06E01903A
:102A0000FFE701980299D1F89010884208D2FFE7B9
:102A1000019900200860FFE7019804300190F0E779
:102A2000FFE700208DF80F00FFE79DF80F0004B0CE
:102A3000704700000000000088B0079006910592E2
:102A400004930698406848B9FFE7069801688268D1
:102A50000069104340EA8140039009E0069801684C
:102A6000826800691043084340F080400390FFE70C
:102A70000698D0F820C0C16842698369C06940EAFD
:102A80000C601843104340EA014002900798826EA0
:102A9000D0F884000499514300EB81000190039821
:102AA000019908600198043001900298019908602A
:102AB00001980430019000200090FFE700980699EB
:102AC000CA6847F69C21C0F60201895C88420DD293
:102AD000FFE7059800994058019908600198043073
:102AE0000190FFE7009804300090E7E708B07047D6
:102AF00080B58AB0089004F0C3FD0490089828B906
:102B0000FFE701208DF8270000F0AABC089890F894
:102B1000350002280ED0FFE7089980204865FFE7BE
:102B20000899002081F83400FFE701208DF8270084
:102B300000F096BC0898016801201022C4F202023D
:102B40009142039000F0A380FFE7089801680120FC
:102B50002822C4F202029142039000F09880FFE71D
:102B60000898016801204022C4F2020291420390B9
:102B700000F08D80FFE70898016801205822C4F218
:102B800002029142039000F08280FFE708980168FA
:102B900001207022C4F202029142039077D0FFE735
:102BA0000898016801208822C4F202029142039031
:102BB0006DD0FFE7089801680120A022C4F202024C
:102BC0009142039063D0FFE7089801680120B82282
:102BD000C4F202029142039059D0FFE708980168BD
:102BE000012040F21042C4F20202914203904ED002
:102BF000FFE708980168012040F22842C4F202026F
:102C00009142039043D0FFE708980168012040F209
:102C10004042C4F202029142039038D0FFE7089884
:102C20000168012040F25842C4F20202914203902E
:102C30002DD0FFE708980168012040F27042C4F2ED
:102C400002029142039022D0FFE708980168012018
:102C500040F28842C4F202029142039017D0FFE78B
:102C600008980168012040F2A042C4F20202914299
:102C700003900CD0FFE7089800684FF64831CBF678
:102C8000FD710844B0FA80F040090390FFE7039813
:102C9000C00780B1FFE708980168086820F01E00AF
:102CA000086008980168486920F080004861089829
:102CB0000068059009E008980168086820F00E0097
:102CC0000860089800680590FFE7089801680120EF
:102CD0001022C4F202029142029000F00381FFE749
:102CE0000898016801202822C4F202029142029051
:102CF00000F0F880FFE70898016801204022C4F244
:102D000002029142029000F0ED80FFE7089801680E
:102D100001205822C4F202029142029000F0E280A7
:102D2000FFE70898016801207022C4F20202914274
:102D3000029000F0D780FFE7089801680120882200
:102D4000C4F202029142029000F0CC80FFE70898A2
:102D500001680120A022C4F202029142029000F018
:102D6000C180FFE7089801680120B822C4F202027E
:102D70009142029000F0B680FFE7089801680120B8
:102D800040F21042C4F202029142029000F0AA8086
:102D9000FFE708980168012040F22842C4F20202CD
:102DA0009142029000F09E80FFE7089801680120A0
:102DB00040F24042C4F202029142029000F092803E
:102DC000FFE708980168012040F25842C4F202026D
:102DD0009142029000F08680FFE708980168012088
:102DE00040F27042C4F20202914202907AD0FFE7B0
:102DF00008980168012040F28842C4F20202914220
:102E000002906FD0FFE708980168012040F2A042CD
:102E1000C4F202029142029064D0FFE70898016870
:102E2000012040F2B842C4F202029142029059D00D
:102E3000FFE708980168012045F20842C5F6020242
:102E4000914202904ED0FFE708980168012045F2B8
:102E50001C42C5F602029142029043D0FFE7089857
:102E60000168012045F23042C5F60202914202900B
:102E700038D0FFE708980168012045F24442C5F6C2
:102E80000202914202902DD0FFE7089801680120CC
:102E900045F25842C5F602029142029022D0FFE765
:102EA00008980168012045F26C42C5F60202914281
:102EB000029017D0FFE708980168012045F2804290
:102EC000C5F60202914202900CD0FFE70898006814
:102ED0004AF66C31CAF2FD710844B0FA80F040093C
:102EE0000290FFE70298C00738B1FFE70898016E2B
:102EF000086820F480700860FFE7089800681021D7
:102F0000C4F20201884200F08180FFE7089800685F
:102F10002821C4F20201884278D0FFE708980068AF
:102F20004021C4F20201884270D0FFE7089800688F
:102F30005821C4F20201884268D0FFE7089800686F
:102F40007021C4F20201884260D0FFE7089800684F
:102F50008821C4F20201884258D0FFE7089800682F
:102F6000A021C4F20201884250D0FFE7089800680F
:102F7000B821C4F20201884248D0FFE708980068EF
:102F800040F21041C4F2020188423FD0FFE70898A6
:102F9000006840F22841C4F20201884236D0FFE7BF
:102FA0000898006840F24041C4F2020188422DD0E6
:102FB000FFE70898006840F25841C4F202018842D5
:102FC00024D0FFE70898006840F27041C4F2020183
:102FD00088421BD0FFE70898006840F28841C4F29D
:102FE0000201884212D0FFE70898006840F2A04131
:102FF000C4F20201884209D0FFE70898006840F255
:10300000B841C4F20201884207D1FFE7089801687D
:10301000086820F00100086006E008980168086868
:1030200020F001000860FFE7FFE705980068C0078F
:10303000C8B1FFE704F024FB0499401A062811D315
:10304000FFE70899202048650899032081F835009A
:10305000FFE70899002081F83400FFE701208DF890
:103060002700FDE1E1E70898016801201022C4F281
:1030700002029142019000F0A380FFE708980168E6
:1030800001202822C4F202029142019000F09880AF
:10309000FFE70898016801204022C4F20202914231
:1030A000019000F08D80FFE7089801680120582208
:1030B000C4F202029142019000F08280FFE708987A
:1030C000016801207022C4F202029142019077D07F
:1030D000FFE70898016801208822C4F202029142A9
:1030E00001906DD0FFE7089801680120A022C4F28A
:1030F00002029142019063D0FFE708980168012025
:10310000B822C4F202029142019059D0FFE7089818
:103110000168012040F21042C4F202029142019083
:103120004ED0FFE708980168012040F22842C4F21F
:1031300002029142019043D0FFE708980168012004
:1031400040F24042C4F202029142019038D0FFE7BF
:1031500008980168012040F25842C4F202029142EC
:1031600001902DD0FFE708980168012040F27042DD
:10317000C4F202029142019022D0FFE70898016850
:10318000012040F28842C4F202029142019017D01D
:10319000FFE708980168012040F2A042C4F2020251
:1031A000914201900CD0FFE7089800684FF6483133
:1031B000CBF6FD710844B0FA80F040090190FFE7BA
:1031C0000198C00760B1FFE70898806D07900898E4
:1031D000C06D00F01F013F208840079988600BE018
:1031E0000898806D06900898C06D00F01F010120BE
:1031F000884006994860FFE708980168012010227E
:10320000C4F202029142009000F00381FFE70898A7
:10321000016801202822C4F202029142009000F0CD
:10322000F880FFE70898016801204022C4F20202FA
:103230009142009000F0ED80FFE7089801680120BE
:103240005822C4F202029142009000F0E280FFE7AF
:103250000898016801207022C4F202029142009095
:1032600000F0D780FFE70898016801208822C4F2A7
:1032700002029142009000F0CC80FFE708980168BC
:103280000120A022C4F202029142009000F0C1800D
:10329000FFE7089801680120B822C4F202029142B7
:1032A000009000F0B680FFE708980168012040F226
:1032B0001042C4F202029142009000F0AA80FFE79F
:1032C00008980168012040F22842C4F202029142AB
:1032D000009000F09E80FFE708980168012040F20E
:1032E0004042C4F202029142009000F09280FFE757
:1032F00008980168012040F25842C4F2020291424B
:10330000009000F08680FFE708980168012040F2F5
:103310007042C4F20202914200907AD0FFE708980E
:103320000168012040F28842C4F2020291420090FA
:103330006FD0FFE708980168012040F2A042C4F274
:1033400002029142009064D0FFE7089801680120D2
:1033500040F2B842C4F202029142009059D0FFE715
:1033600008980168012045F20842C5F60202914220
:1033700000904ED0FFE708980168012045F21C42FA
:10338000C5F602029142009043D0FFE70898016819
:10339000012045F23042C5F602029142009038D039
:1033A000FFE708980168012045F24442C5F6020291
:1033B000914200902DD0FFE708980168012045F266
:1033C0005842C5F602029142009022D0FFE70898C9
:1033D0000168012045F26C42C5F60202914200905C
:1033E00017D0FFE708980168012045F28042C5F632
:1033F0000202914200900CD0FFE7089800684AF65C
:103400006C31CAF2FD710844B0FA80F040090090B6
:10341000FFE70098C007A0B1FFE70898416E806EF3
:1034200048600898C06E58B1FFE70898C16E0868F8
:1034300020F4807008600898016F406F4860FFE7D3
:10344000FFE70899012081F83500FFE7089900207F
:1034500081F83400FFE7FFE700208DF82700FFE741
:103460009DF827000AB080BD80B586B0049004980E
:1034700020B9FFE701208DF8170046E3049890F883
:103480003500022807D0FFE7049980204865012015
:103490008DF8170039E30498016801201022C4F266
:1034A00002029142029000F0A380FFE704980168B5
:1034B00001202822C4F202029142029000F098807A
:1034C000FFE70498016801204022C4F20202914201
:1034D000029000F08D80FFE70498016801205822D7
:1034E000C4F202029142029000F08280FFE7049849
:1034F000016801207022C4F202029142029077D04A
:10350000FFE70498016801208822C4F20202914278
:1035100002906DD0FFE7049801680120A022C4F258
:1035200002029142029063D0FFE7049801680120F3
:10353000B822C4F202029142029059D0FFE70498E7
:103540000168012040F21042C4F20202914202904E
:103550004ED0FFE704980168012040F22842C4F2EF
:1035600002029142029043D0FFE7049801680120D3
:1035700040F24042C4F202029142029038D0FFE78A
:1035800004980168012040F25842C4F202029142BC
:1035900002902DD0FFE704980168012040F27042AC
:1035A000C4F202029142029022D0FFE7049801681F
:1035B000012040F28842C4F202029142029017D0E8
:1035C000FFE704980168012040F2A042C4F2020221
:1035D000914202900CD0FFE7049800684FF6483102
:1035E000CBF6FD710844B0FA80F040090290FFE785
:1035F0000298C007002800F09D80FFE7049904208E
:1036000081F83500049800681021C4F20201884254
:1036100000F08180FFE7049800682821C4F20201CD
:10362000884278D0FFE7049800684021C4F2020184
:10363000884270D0FFE7049800685821C4F2020164
:10364000884268D0FFE7049800687021C4F2020144
:10365000884260D0FFE7049800688821C4F2020124
:10366000884258D0FFE704980068A021C4F2020104
:10367000884250D0FFE704980068B821C4F20201E4
:10368000884248D0FFE70498006840F21041C4F235
:10369000020188423FD0FFE70498006840F22841C9
:1036A000C4F20201884236D0FFE70498006840F275
:1036B0004041C4F2020188422DD0FFE7049800681F
:1036C00040F25841C4F20201884224D0FFE7049836
:1036D000006840F27041C4F2020188421BD0FFE74B
:1036E0000498006840F28841C4F20201884212D076
:1036F000FFE70498006840F2A041C4F2020188424A
:1037000009D0FFE70498006840F2B841C4F2020112
:10371000884207D1FFE704980168086820F001009B
:10372000086006E004980168086820F0010008605D
:10373000FFE7E5E104980168086820F00E000860E2
:10374000049800681021C4F20201884200F08180D0
:10375000FFE7049800682821C4F20201884278D06B
:10376000FFE7049800684021C4F20201884270D04B
:10377000FFE7049800685821C4F20201884268D02B
:10378000FFE7049800687021C4F20201884260D00B
:10379000FFE7049800688821C4F20201884258D0EB
:1037A000FFE704980068A021C4F20201884250D0CB
:1037B000FFE704980068B821C4F20201884248D0AB
:1037C000FFE70498006840F21041C4F20201884209
:1037D0003FD0FFE70498006840F22841C4F202019C
:1037E000884236D0FFE70498006840F24041C4F2B6
:1037F000020188422DD0FFE70498006840F258414A
:10380000C4F20201884224D0FFE70498006840F225
:103810007041C4F2020188421BD0FFE7049800689F
:1038200040F28841C4F20201884212D0FFE70498B6
:10383000006840F2A041C4F20201884209D0FFE7CB
:103840000498006840F2B841C4F20201884207D1EE
:10385000FFE704980168086820F00100086006E0AE
:1038600004980168086820F001000860FFE70498E8
:10387000016801201022C4F202029142019000F07E
:103880000381FFE70498016801202822C4F20202A4
:103890009142019000F0F880FFE704980168012050
:1038A0004022C4F202029142019000F0ED80FFE755
:1038B0000498016801205822C4F20202914201904A
:1038C00000F0E280FFE70498016801207022C4F252
:1038D00002029142019000F0D780FFE7049801684E
:1038E00001208822C4F202029142019000F0CC80B3
:1038F000FFE7049801680120A022C4F2020291426D
:10390000019000F0C180FFE7049801680120B8220F
:10391000C4F202029142019000F0B680FFE70498E1
:103920000168012040F21042C4F20202914201906B
:1039300000F0AA80FFE704980168012040F22842C5
:10394000C4F202029142019000F09E80FFE70498C9
:103950000168012040F24042C4F20202914201900B
:1039600000F09280FFE704980168012040F258427D
:10397000C4F202029142019000F08680FFE70498B1
:103980000168012040F27042C4F2020291420190AB
:103990007AD0FFE704980168012040F28842C4F21F
:1039A0000202914201906FD0FFE704980168012064
:1039B00040F2A042C4F202029142019064D0FFE7BB
:1039C00004980168012040F2B842C4F20202914218
:1039D000019059D0FFE704980168012045F20842A0
:1039E000C5F60202914201904ED0FFE704980168AB
:1039F000012045F21C42C5F602029142019043D0DB
:103A0000FFE704980168012045F23042C5F6020242
:103A10009142019038D0FFE704980168012045F2F7
:103A20004442C5F60202914201902DD0FFE704986E
:103A30000168012045F25842C5F602029142019008
:103A400022D0FFE704980168012045F26C42C5F6D8
:103A500002029142019017D0FFE70498016801200B
:103A600045F28042C5F60202914201900CD0FFE778
:103A7000049800684AF66C31CAF2FD710844B0FA45
:103A800080F040090190FFE70198C00728B3FFE7E5
:103A90000498016E086820F4807008600498806DB6
:103AA00003900498C06D00F01F0101208840039925
:103AB00048600498416E806E48600498C06E58B1AA
:103AC000FFE70498C16E086820F4807008600498CD
:103AD000016F406F4860FFE7FFE70499012081F81C
:103AE0003500FFE70499002081F83400FFE70498CF
:103AF000006D20B1FFE70498016D8847FFE7FFE7FD
:103B0000FFE700208DF81700FFE79DF8170006B0CB
:103B100080BD00000000000080B590B00F90002034
:103B20000B9040F21400C2F20040006848F2B51158
:103B3000C1F64E31A0FB0110800A0A900F98806DEB
:103B400009900F98806D0890099800680E90089869
:103B500000680D900F98016801201022C4F2020243
:103B60009142079000F0A380FFE70F9801680120C1
:103B70002822C4F202029142079000F09880FFE7E9
:103B80000F98016801204022C4F20202914207907E
:103B900000F08D80FFE70F98016801205822C4F2E1
:103BA00002029142079000F08280FFE70F980168BF
:103BB00001207022C4F202029142079077D0FFE701
:103BC0000F98016801208822C4F2020291420790F6
:103BD0006DD0FFE70F9801680120A022C4F2020215
:103BE0009142079063D0FFE70F9801680120B82247
:103BF000C4F202029142079059D0FFE70F98016882
:103C0000012040F21042C4F20202914207904ED0CD
:103C1000FFE70F980168012040F22842C4F2020237
:103C20009142079043D0FFE70F980168012040F2CE
:103C30004042C4F202029142079038D0FFE70F9849
:103C40000168012040F25842C4F2020291420790FA
:103C50002DD0FFE70F980168012040F27042C4F2B6
:103C600002029142079022D0FFE70F9801680120DD
:103C700040F28842C4F202029142079017D0FFE757
:103C80000F980168012040F2A042C4F20202914262
:103C900007900CD0FFE70F9800684FF64831CBF63D
:103CA000FD710844B0FA80F040090790FFE70798DB
:103CB000C007002800F01385FFE70E980F99C96D23
:103CC00001F01F01C8400007002840F1B080FFE765
:103CD0000F9800681021C4F20201884200F0818030
:103CE000FFE70F9800682821C4F20201884278D0CB
:103CF000FFE70F9800684021C4F20201884270D0AB
:103D0000FFE70F9800685821C4F20201884268D08A
:103D1000FFE70F9800687021C4F20201884260D06A
:103D2000FFE70F9800688821C4F20201884258D04A
:103D3000FFE70F980068A021C4F20201884250D02A
:103D4000FFE70F980068B821C4F20201884248D00A
:103D5000FFE70F98006840F21041C4F20201884268
:103D60003FD0FFE70F98006840F22841C4F20201FB
:103D7000884236D0FFE70F98006840F24041C4F215
:103D8000020188422DD0FFE70F98006840F25841A9
:103D9000C4F20201884224D0FFE70F98006840F285
:103DA0007041C4F2020188421BD0FFE70F980068FF
:103DB00040F28841C4F20201884212D0FFE70F9816
:103DC000006840F2A041C4F20201884209D0FFE736
:103DD0000F98006840F2B841C4F20201884207D14E
:103DE000FFE70F980068006800F00400069006E006
:103DF0000F980068006800F008000690FFE706983A
:103E0000A0B1FFE70F980168086820F0040008607F
:103E10000F98C06D00F01F01082088400999886044
:103E20000F99486D40F001004865FFE7FFE70E98E5
:103E30000F99C96D01F01F01C840C007002800F0AC
:103E4000A980FFE70F9800681021C4F202018842A0
:103E500000F08180FFE70F9800682821C4F202017A
:103E6000884278D0FFE70F9800684021C4F2020131
:103E7000884270D0FFE70F9800685821C4F2020111
:103E8000884268D0FFE70F9800687021C4F20201F1
:103E9000884260D0FFE70F9800688821C4F20201D1
:103EA000884258D0FFE70F980068A021C4F20201B1
:103EB000884250D0FFE70F980068B821C4F2020191
:103EC000884248D0FFE70F98006840F21041C4F2E2
:103ED000020188423FD0FFE70F98006840F2284176
:103EE000C4F20201884236D0FFE70F98006840F222
:103EF0004041C4F2020188422DD0FFE70F980068CC
:103F000040F25841C4F20201884224D0FFE70F98E2
:103F1000006840F27041C4F2020188421BD0FFE702
:103F20000F98006840F28841C4F20201884212D022
:103F3000FFE70F98006840F2A041C4F202018842F6
:103F400009D0FFE70F98006840F2B841C4F20201BF
:103F5000884207D1FFE70F980068406900F08000B1
:103F6000059005E00F980068006800200590FFE7C5
:103F7000059870B1FFE70F98C06D00F01F01012098
:103F80008840099988600F99486D40F002004865A3
:103F9000FFE7FFE70E980F99C96D01F01F01C840B8
:103FA0004007002840F1A980FFE70F980068102122
:103FB000C4F20201884200F08180FFE70F98006898
:103FC0002821C4F20201884278D0FFE70F980068E8
:103FD0004021C4F20201884270D0FFE70F980068C8
:103FE0005821C4F20201884268D0FFE70F980068A8
:103FF0007021C4F20201884260D0FFE70F98006888
:104000008821C4F20201884258D0FFE70F98006867
:10401000A021C4F20201884250D0FFE70F98006847
:10402000B821C4F20201884248D0FFE70F98006827
:1040300040F21041C4F2020188423FD0FFE70F98DE
:10404000006840F22841C4F20201884236D0FFE7FE
:104050000F98006840F24041C4F2020188422DD01E
:10406000FFE70F98006840F25841C4F2020188420D
:1040700024D0FFE70F98006840F27041C4F20201BB
:1040800088421BD0FFE70F98006840F28841C4F2D5
:104090000201884212D0FFE70F98006840F2A04169
:1040A000C4F20201884209D0FFE70F98006840F28D
:1040B000B841C4F20201884207D1FFE70F980068B7
:1040C000006800F00200049005E00F9800680068A6
:1040D00000200490FFE7049870B1FFE70F98C06DCF
:1040E00000F01F0104208840099988600F99486DED
:1040F00040F004004865FFE7FFE70E980F99C96D8F
:1041000001F01F01C840C006002840F1DE80FFE733
:104110000F9800681021C4F20201884200F08180EB
:10412000FFE70F9800682821C4F20201884278D086
:10413000FFE70F9800684021C4F20201884270D066
:10414000FFE70F9800685821C4F20201884268D046
:10415000FFE70F9800687021C4F20201884260D026
:10416000FFE70F9800688821C4F20201884258D006
:10417000FFE70F980068A021C4F20201884250D0E6
:10418000FFE70F980068B821C4F20201884248D0C6
:10419000FFE70F98006840F21041C4F20201884224
:1041A0003FD0FFE70F98006840F22841C4F20201B7
:1041B000884236D0FFE70F98006840F24041C4F2D1
:1041C000020188422DD0FFE70F98006840F2584165
:1041D000C4F20201884224D0FFE70F98006840F241
:1041E0007041C4F2020188421BD0FFE70F980068BB
:1041F00040F28841C4F20201884212D0FFE70F98D2
:10420000006840F2A041C4F20201884209D0FFE7F1
:104210000F98006840F2B841C4F20201884207D109
:10422000FFE70F980068006800F00800039006E0C0
:104230000F980068006800F004000390FFE70398FF
:10424000002841D0FFE70F98C06D00F01F0110203B
:104250008840099988600F9800680068400300282A
:104260001AD5FFE70F98006800680003002809D4FA
:10427000FFE70F98006C20B1FFE70F98016C8847AB
:10428000FFE708E00F98806C20B1FFE70F98816C82
:104290008847FFE7FFE716E00F9800680068C00551
:1042A000002807D4FFE70F980168086820F008008D
:1042B0000860FFE70F98006C20B1FFE70F98016CD2
:1042C0008847FFE7FFE7FFE7FFE70E980F99C96D03
:1042D00001F01F01C8408006002840F12681FFE759
:1042E0000F9800681021C4F20201884200F081801A
:1042F000FFE70F9800682821C4F20201884278D0B5
:10430000FFE70F9800684021C4F20201884270D094
:10431000FFE70F9800685821C4F20201884268D074
:10432000FFE70F9800687021C4F20201884260D054
:10433000FFE70F9800688821C4F20201884258D034
:10434000FFE70F980068A021C4F20201884250D014
:10435000FFE70F980068B821C4F20201884248D0F4
:10436000FFE70F98006840F21041C4F20201884252
:104370003FD0FFE70F98006840F22841C4F20201E5
:10438000884236D0FFE70F98006840F24041C4F2FF
:10439000020188422DD0FFE70F98006840F2584193
:1043A000C4F20201884224D0FFE70F98006840F26F
:1043B0007041C4F2020188421BD0FFE70F980068E9
:1043C00040F28841C4F20201884212D0FFE70F9800
:1043D000006840F2A041C4F20201884209D0FFE720
:1043E0000F98006840F2B841C4F20201884207D138
:1043F000FFE70F980068006800F01000029006E0E8
:104400000F980068006800F002000290FFE7029831
:10441000002800F08980FFE70F98C06D00F01F01B1
:1044200020208840099988600F9890F8350004286A
:1044300037D1FFE70F980168086820F01600086080
:104440000F980168486920F0800048610F98006C5F
:1044500020B9FFE70F98806C38B1FFE70F9801682B
:10446000086820F008000860FFE70F98C06D00F0B2
:104470001F013F208840099988600F99012081F829
:104480003500FFE70F99002081F83400FFE70F980F
:10449000006D20B1FFE70F98016D8847FFE700F03E
:1044A00019BC0F9800680068400300281AD5FFE780
:1044B0000F98006800680003002809D4FFE70F98F0
:1044C000406C20B1FFE70F98416C8847FFE708E098
:1044D0000F98C06B20B1FFE70F98C16B8847FFE7CB
:1044E000FFE720E00F9800680068C005002811D49D
:1044F000FFE70F980168086820F0100008600F9926
:10450000012081F83500FFE70F99002081F8340081
:10451000FFE7FFE70F98C06B20B1FFE70F98C16B73
:104520008847FFE7FFE7FFE7FFE70F98406D0028A8
:1045300000F0D480FFE70F98406DC007002800F01E
:10454000C480FFE70F99042081F835000F980068B8
:104550001021C4F20201884200F08180FFE70F9829
:1045600000682821C4F20201884278D0FFE70F9842
:1045700000684021C4F20201884270D0FFE70F9822
:1045800000685821C4F20201884268D0FFE70F9802
:1045900000687021C4F20201884260D0FFE70F98E2
:1045A00000688821C4F20201884258D0FFE70F98C2
:1045B0000068A021C4F20201884250D0FFE70F98A2
:1045C0000068B821C4F20201884248D0FFE70F9882
:1045D000006840F21041C4F2020188423FD0FFE778
:1045E0000F98006840F22841C4F20201884236D098
:1045F000FFE70F98006840F24041C4F20201884290
:104600002DD0FFE70F98006840F25841C4F2020134
:10461000884224D0FFE70F98006840F27041C4F24E
:10462000020188421BD0FFE70F98006840F28841E2
:10463000C4F20201884212D0FFE70F98006840F2EE
:10464000A041C4F20201884209D0FFE70F98006838
:1046500040F2B841C4F20201884207D1FFE70F9847
:104660000168086820F00100086006E00F98016802
:10467000086820F001000860FFE7FFE70B980130B1
:104680000B900A99884201D9FFE707E0FFE70F98EE
:1046900000680068C0070028F0D1FFE70F980068A5
:1046A0000068C00728B1FFE70F99032081F83500A3
:1046B00004E00F99012081F83500FFE7FFE70F992B
:1046C000002081F83400FFE7FFE70F98C06C20B1AD
:1046D000FFE70F98C16C8847FFE7FFE7FAE20F9802
:1046E0000168012045F20842C5F60202914201909C
:1046F0004ED0FFE70F980168012045F21C42C5F635
:1047000002029142019043D0FFE70F980168012017
:1047100045F23042C5F602029142019038D0FFE7DF
:104720000F980168012045F24442C5F60202914209
:1047300001902DD0FFE70F980168012045F2584203
:10474000C5F602029142019022D0FFE70F9801685E
:10475000012045F26C42C5F602029142019017D049
:10476000FFE70F980168012045F28042C5F602027A
:10477000914201900CD0FFE70F9800684AF66C3127
:10478000CAF2FD710844B0FA80F040090190FFE7D9
:104790000198C007002800F09B82FFE70F9800688F
:1047A00000680C900D980F99C96D01F01F01C84069
:1047B0004007002840F1D780FFE79DF83000400710
:1047C000002840F1D080FFE70F98C06D00F01F0176
:1047D00004208840089948609DF8310000060028B0
:1047E00018D5FFE79DF83200C00748B9FFE70F98DA
:1047F000806C20B1FFE70F98816C8847FFE708E0E5
:104800000F98006C20B1FFE70F98016C8847FFE715
:10481000FFE7A7E09DF830008006002800F19980AE
:10482000FFE70F9800681021C4F20201884200F0EF
:104830008180FFE70F9800682821C4F202018842B6
:1048400078D0FFE70F9800684021C4F20201884247
:1048500070D0FFE70F9800685821C4F20201884227
:1048600068D0FFE70F9800687021C4F20201884207
:1048700060D0FFE70F9800688821C4F202018842E7
:1048800058D0FFE70F980068A021C4F202018842C7
:1048900050D0FFE70F980068B821C4F202018842A7
:1048A00048D0FFE70F98006840F21041C4F20201BF
:1048B00088423FD0FFE70F98006840F22841C4F2D9
:1048C0000201884236D0FFE70F98006840F240416D
:1048D000C4F2020188422DD0FFE70F98006840F231
:1048E0005841C4F20201884224D0FFE70F980068C3
:1048F00040F27041C4F2020188421BD0FFE70F98DA
:10490000006840F28841C4F20201884212D0FFE7F9
:104910000F98006840F2A041C4F20201884209D019
:10492000FFE70F98006840F2B841C4F202018842E4
:1049300007D1FFE70F980168086820F008000860B9
:1049400006E00F980168086820F004000860FFE79F
:10495000FFE70F98006C20B1FFE70F98016C8847C4
:10496000FFE7FFE7B3E10D980F99C96D01F01F0153
:10497000C8408007002840F1E180FFE79DF8300043
:104980008007002840F1DA80FFE70F98C06D00F043
:104990001F0102208840089948609DF831000006F8
:1049A000002818D5FFE79DF83200C00748B9FFE797
:1049B0000F98406C20B1FFE70F98416C8847FFE7E4
:1049C00008E00F98C06B20B1FFE70F98C16B8847D4
:1049D000FFE7FFE7B1E09DF830008006002800F116
:1049E000A380FFE70F9800681021C4F202018842FB
:1049F00000F08180FFE70F9800682821C4F20201CF
:104A0000884278D0FFE70F9800684021C4F2020185
:104A1000884270D0FFE70F9800685821C4F2020165
:104A2000884268D0FFE70F9800687021C4F2020145
:104A3000884260D0FFE70F9800688821C4F2020125
:104A4000884258D0FFE70F980068A021C4F2020105
:104A5000884250D0FFE70F980068B821C4F20201E5
:104A6000884248D0FFE70F98006840F21041C4F236
:104A7000020188423FD0FFE70F98006840F22841CA
:104A8000C4F20201884236D0FFE70F98006840F276
:104A90004041C4F2020188422DD0FFE70F98006820
:104AA00040F25841C4F20201884224D0FFE70F9837
:104AB000006840F27041C4F2020188421BD0FFE757
:104AC0000F98006840F28841C4F20201884212D077
:104AD000FFE70F98006840F2A041C4F2020188424B
:104AE00009D0FFE70F98006840F2B841C4F2020114
:104AF000884207D1FFE70F980168086820F014008A
:104B0000086006E00F980168086820F00A00086055
:104B1000FFE70F99012081F83500FFE70F9900208A
:104B200081F83400FFE7FFE70F98C06B20B1FFE783
:104B30000F98C16B8847FFE7FFE7C7E00D980F9913
:104B4000C96D01F01F01C8400007002840F1BC807A
:104B5000FFE79DF830000007002840F1B580FFE72F
:104B60000F9800681021C4F20201884200F0818091
:104B7000FFE70F9800682821C4F20201884278D02C
:104B8000FFE70F9800684021C4F20201884270D00C
:104B9000FFE70F9800685821C4F20201884268D0EC
:104BA000FFE70F9800687021C4F20201884260D0CC
:104BB000FFE70F9800688821C4F20201884258D0AC
:104BC000FFE70F980068A021C4F20201884250D08C
:104BD000FFE70F980068B821C4F20201884248D06C
:104BE000FFE70F98006840F21041C4F202018842CA
:104BF0003FD0FFE70F98006840F22841C4F202015D
:104C0000884236D0FFE70F98006840F24041C4F276
:104C1000020188422DD0FFE70F98006840F258410A
:104C2000C4F20201884224D0FFE70F98006840F2E6
:104C30007041C4F2020188421BD0FFE70F98006860
:104C400040F28841C4F20201884212D0FFE70F9877
:104C5000006840F2A041C4F20201884209D0FFE797
:104C60000F98006840F2B841C4F20201884207D1AF
:104C7000FFE70F980168086820F01C00086006E054
:104C80000F980168086820F00E000860FFE70F9891
:104C9000C06D00F01F01012000FA01F1089A516077
:104CA0000F9948650F9981F83500FFE70F990020AB
:104CB00081F83400FFE70F98C06C20B1FFE70F9830
:104CC000C16C8847FFE700E0FFE7FFE7FFE700E090
:104CD000FFE7FFE710B080BD10B58EB00C9002F07A
:104CE000CFFC0A900C9828B9FFE701208DF8370017
:104CF00000F09EBC0C98016801201022C4F2020250
:104D00009142079000F0A380FFE70C980168012012
:104D10002822C4F202029142079000F09880FFE737
:104D20000C98016801204022C4F2020291420790CF
:104D300000F08D80FFE70C98016801205822C4F232
:104D400002029142079000F08280FFE70C98016810
:104D500001207022C4F202029142079077D0FFE74F
:104D60000C98016801208822C4F202029142079047
:104D70006DD0FFE70C9801680120A022C4F2020266
:104D80009142079063D0FFE70C9801680120B82298
:104D9000C4F202029142079059D0FFE70C980168D3
:104DA000012040F21042C4F20202914207904ED01C
:104DB000FFE70C980168012040F22842C4F2020289
:104DC0009142079043D0FFE70C980168012040F220
:104DD0004042C4F202029142079038D0FFE70C989B
:104DE0000168012040F25842C4F202029142079049
:104DF0002DD0FFE70C980168012040F27042C4F208
:104E000002029142079022D0FFE70C98016801202E
:104E100040F28842C4F202029142079017D0FFE7A5
:104E20000C980168012040F2A042C4F202029142B3
:104E300007900CD0FFE70C9800684FF64831CBF68E
:104E4000FD710844B0FA80F040090790FFE7079829
:104E5000C007002800F07881FFE70C98406A08B18D
:104E6000FFE7FFE70C99022081F83500FFE70C9976
:104E7000002081F83400FFE70C9800681021C4F28C
:104E80000201884200F08180FFE70C980068282129
:104E9000C4F20201884278D0FFE70C9800684021F4
:104EA000C4F20201884270D0FFE70C9800685821D4
:104EB000C4F20201884268D0FFE70C9800687021B4
:104EC000C4F20201884260D0FFE70C980068882194
:104ED000C4F20201884258D0FFE70C980068A02174
:104EE000C4F20201884250D0FFE70C980068B82154
:104EF000C4F20201884248D0FFE70C98006840F2F3
:104F00001041C4F2020188423FD0FFE70C980068CC
:104F100040F22841C4F20201884236D0FFE70C98E3
:104F2000006840F24041C4F2020188422DD0FFE700
:104F30000C98006840F25841C4F20201884224D023
:104F4000FFE70C98006840F27041C4F20201884209
:104F50001BD0FFE70C98006840F28841C4F20201C0
:104F6000884212D0FFE70C98006840F2A041C4F2DA
:104F70000201884209D0FFE70C98006840F2B8416E
:104F8000C4F20201884207D1FFE70C980168086863
:104F900020F00100086006E00C980168086820F025
:104FA00001000860FFE7FFE70C9800680068C00791
:104FB00098B1FFE702F064FB0A99401A06280BD368
:104FC000FFE70C99202048650C99032081F83500F3
:104FD00001208DF837002BE3E6E70C9800680068A5
:104FE0000B900B9848F23F01CFF6106108400B90F0
:104FF0000C998868D1F80CC00B694A6940EA0C002A
:10500000184310438A691043CA691043096A01436F
:105010000B9808430B900C98406A042808D1FFE7CE
:105020000C99C86A096B01430B9808430B90FFE782
:105030000C984068292807D3FFE70C9841680120A5
:105040002F29069036D3FFE70C9840683F2807D3F6
:10505000FFE70C9841680120432906902AD3FFE717
:105060000C984068472807D3FFE70C984168012057
:10507000492906901ED3FFE70C9840684F2807D3B4
:10508000FFE70C98416801205329069012D3FFE7EF
:105090000C98416800207429059008D3FFE70C980C
:1050A00041680020782938BF01200590FFE7059866
:1050B0000690FFE70698C00728B1FFE70B9840F479
:1050C00080100B90FFE70B980C99096808600C980A
:1050D000006840690B900B9820F007000B900C982B
:1050E000416A0B9808430B900C98406A04281AD127
:1050F000FFE70C98816A0B9808430B900C98C06AE4
:1051000080B1FFE70C98FCF7D3FF50B1FFE70C9993
:10511000402048650C99012081F835008DF8370052
:1051200086E2FFE7FFE70B980C99096848610C9845
:10513000FCF782FD09900C98C06D00F01F013F2024
:1051400088400999886026E10C980168012045F2A1
:105150000842C5F60202914204904ED0FFE70C9837
:105160000168012045F21C42C5F6020291420490FA
:1051700043D0FFE70C980168012045F23042C5F6A4
:1051800002029142049038D0FFE70C980168012098
:1051900045F24442C5F60202914204902DD0FFE749
:1051A0000C980168012045F25842C5F6020291426E
:1051B000049022D0FFE70C980168012045F26C4270
:1051C000C5F602029142049017D0FFE70C980168DF
:1051D000012045F28042C5F60202914204900CD0B3
:1051E000FFE70C9800684AF66C31CAF2FD7108447A
:1051F000B0FA80F040090490FFE70498C007002847
:1052000000F0BD80FFE70C980168012045F20842DC
:10521000C5F60202914203904ED0FFE70C98016858
:10522000012045F21C42C5F602029142039043D090
:10523000FFE70C980168012045F23042C5F60202F2
:105240009142039038D0FFE70C980168012045F2A5
:105250004442C5F60202914203902DD0FFE70C981C
:105260000168012045F25842C5F6020291420390BE
:1052700022D0FFE70C980168012045F26C42C5F688
:1052800002029142039017D0FFE70C9801680120B9
:1052900045F28042C5F60202914203900CD0FFE72E
:1052A0000C9800684AF66C31CAF2FD710844B0FAF5
:1052B00080F040090390FFE70398C00708B1FFE7BB
:1052C000FFE70C99022081F83500FFE70C990020D8
:1052D00081F83400FFE70C98006800680B900B9889
:1052E0006FF310100B900C988068402803D1FFE7F3
:1052F0001020029008E00C9880688038B0FA80F0A6
:10530000400980030290FFE702980C99CA680B6974
:10531000D1F814C0D1F818E0CC694EEA040E4CEA7A
:105320000E0C43EA0C031A4340EAD200096A40EA31
:1053300011110B9808430B900B980C9909680860A1
:105340000C9908684AF6F832CAF2FD7210444CF61D
:10535000CD42CCF6CC42A0FB02026FF0030000EA83
:105360009200C8650C98FCF767FC08900C98C06D1B
:1053700000F01F0101208840089948600AE00C995C
:10538000402048650C99032081F8350001208DF8F4
:1053900037004DE1FFE70C98016801201022C4F2AC
:1053A00002029142019000F00381FFE70C9801682E
:1053B00001202822C4F202029142019000F0F880FC
:1053C000FFE70C98016801204022C4F202029142DA
:1053D000019000F0ED80FFE70C9801680120582251
:1053E000C4F202029142019000F0E280FFE70C98C3
:1053F000016801207022C4F202029142019000F083
:10540000D780FFE70C98016801208822C4F20202CD
:105410009142019000F0CC80FFE70C9801680120D8
:10542000A022C4F202029142019000F0C180FFE785
:105430000C9801680120B822C4F202029142019046
:1054400000F0B680FFE70C980168012040F210429E
:10545000C4F202029142019000F0AA80FFE70C988A
:105460000168012040F22842C4F2020291420190F8
:1054700000F09E80FFE70C980168012040F2404256
:10548000C4F202029142019000F09280FFE70C9872
:105490000168012040F25842C4F202029142019098
:1054A00000F08680FFE70C980168012040F270420E
:1054B000C4F20202914201907AD0FFE70C98016891
:1054C000012040F28842C4F20202914201906FD062
:1054D000FFE70C980168012040F2A042C4F20202EA
:1054E0009142019064D0FFE70C980168012040F2DE
:1054F000B842C4F202029142019059D0FFE70C98E1
:105500000168012045F20842C5F60202914201906D
:105510004ED0FFE70C980168012045F21C42C5F609
:1055200002029142019043D0FFE70C9801680120EC
:1055300045F23042C5F602029142019038D0FFE7B1
:105540000C980168012045F24442C5F602029142DE
:1055500001902DD0FFE70C980168012045F25842D8
:10556000C5F602029142019022D0FFE70C98016833
:10557000012045F26C42C5F602029142019017D01B
:10558000FFE70C980168012045F28042C5F602024F
:10559000914201900CD0FFE70C9800684AF66C31FC
:1055A000CAF2FD710844B0FA80F040090190FFE7AB
:1055B0000198C00790B3FFE70C98FCF725FC0C9806
:1055C0008068802804D1FFE70C9900204860FFE73D
:1055D0000C990879096E08600C98416E806E4860DD
:1055E0000C98406888B1FFE70C98406808280CD8F0
:1055F000FFE70C98FCF7C4FC0C98C16E0020086013
:105600000C98016F406F486007E00C990020C86655
:105610000C9908670C994867FFE7FFE70C99002091
:1056200048650C9A012182F835108DF83700FFE7A4
:105630009DF837000EB010BD80B588B0069005917A
:105640000492039300208DF80B00069820B9FFE721
:1056500001208DF81F006CE3FFE7069890F83400F6
:10566000012804D1FFE702208DF81F0061E30699AD
:10567000012081F83400FFE7FFE7069890F8350035
:10568000012840F04383FFE70699022081F83500A6
:10569000069900204865069800681021C4F20201AE
:1056A000884200F08180FFE7069800682821C4F254
:1056B0000201884278D0FFE7069800684021C4F2D2
:1056C0000201884270D0FFE7069800685821C4F2B2
:1056D0000201884268D0FFE7069800687021C4F292
:1056E0000201884260D0FFE7069800688821C4F272
:1056F0000201884258D0FFE706980068A021C4F252
:105700000201884250D0FFE706980068B821C4F231
:105710000201884248D0FFE70698006840F2104135
:10572000C4F2020188423FD0FFE70698006840F2C9
:105730002841C4F20201884236D0FFE7069800688B
:1057400040F24041C4F2020188422DD0FFE70698A2
:10575000006840F25841C4F20201884224D0FFE7B9
:105760000698006840F27041C4F2020188421BD0E2
:10577000FFE70698006840F28841C4F202018842BF
:1057800012D0FFE70698006840F2A041C4F202017F
:10579000884209D0FFE70698006840F2B841C4F299
:1057A0000201884207D1FFE706980168086820F0E7
:1057B0000100086006E006980168086820F0010012
:1057C0000860FFE706980599049A039BFCF7E8FC3C
:1057D0000698016801201022C4F202029142019051
:1057E00000F0A380FFE70698016801202822C4F298
:1057F00002029142019000F09880FFE7069801684C
:1058000001204022C4F202029142019000F08D80FA
:10581000FFE70698016801205822C4F20202914273
:10582000019000F08280FFE7069801680120702255
:10583000C4F202029142019077D0FFE70698016816
:1058400001208822C4F20202914201906DD0FFE74C
:10585000069801680120A022C4F202029142019040
:1058600063D0FFE7069801680120B822C4F2020263
:105870009142019059D0FFE706980168012040F25B
:105880001042C4F20202914201904ED0FFE7069806
:105890000168012040F22842C4F2020291420190C4
:1058A00043D0FFE706980168012040F24042C4F26D
:1058B00002029142019038D0FFE70698016801206A
:1058C00040F25842C4F20202914201902DD0FFE70B
:1058D00006980168012040F27042C4F2020291422F
:1058E000019022D0FFE706980168012040F288422B
:1058F000C4F202029142019017D0FFE706980168B6
:10590000012040F2A042C4F20202914201900CD068
:10591000FFE7069800684FF64831CBF6FD71084462
:10592000B0FA80F040090190FFE70198C007A8B1E4
:10593000FFE70698006800680B2161F344000699B0
:10594000096808600698006C38B1FFE7069801689E
:10595000086840F008000860FFE714E00698006857
:105960000068052161F343000699096808600698FC
:10597000006C38B1FFE706980168086840F0040041
:105980000860FFE7FFE70698016801201022C4F2D3
:1059900002029142009000F00381FFE7069801683F
:1059A00001202822C4F202029142009000F0F88007
:1059B000FFE70698016801204022C4F202029142EA
:1059C000009000F0ED80FFE7069801680120582262
:1059D000C4F202029142009000F0E280FFE70698D4
:1059E000016801207022C4F202029142009000F08E
:1059F000D780FFE70698016801208822C4F20202DE
:105A00009142009000F0CC80FFE7069801680120E9
:105A1000A022C4F202029142009000F0C180FFE790
:105A2000069801680120B822C4F202029142009057
:105A300000F0B680FFE706980168012040F21042AE
:105A4000C4F202029142009000F0AA80FFE706989B
:105A50000168012040F22842C4F202029142009003
:105A600000F09E80FFE706980168012040F2404266
:105A7000C4F202029142009000F09280FFE7069883
:105A80000168012040F25842C4F2020291420090A3
:105A900000F08680FFE706980168012040F270421E
:105AA000C4F20202914200907AD0FFE706980168A2
:105AB000012040F28842C4F20202914200906FD06D
:105AC000FFE706980168012040F2A042C4F20202FA
:105AD0009142009064D0FFE706980168012040F2EF
